{
	"FinalProject/contracts/AtomicArbitrage/benchmark.sol": {
		"Arbitrage": {
			"abi": [
				{
					"inputs": [
						{
							"internalType": "uint256",
							"name": "amountIn",
							"type": "uint256"
						},
						{
							"internalType": "address",
							"name": "router",
							"type": "address"
						},
						{
							"internalType": "address",
							"name": "LUSD",
							"type": "address"
						},
						{
							"internalType": "address",
							"name": "TIGER",
							"type": "address"
						}
					],
					"name": "doArbitrage",
					"outputs": [
						{
							"internalType": "uint256",
							"name": "amountOut",
							"type": "uint256"
						}
					],
					"stateMutability": "nonpayable",
					"type": "function"
				}
			],
			"devdoc": {
				"kind": "dev",
				"methods": {},
				"version": 1
			},
			"evm": {
				"assembly": "    /* \"FinalProject/contracts/AtomicArbitrage/benchmark.sol\":295:2942  contract Arbitrage {... */\n  mstore(0x40, 0x80)\n  callvalue\n  dup1\n  iszero\n  tag_1\n  jumpi\n  0x00\n  dup1\n  revert\ntag_1:\n  pop\n  dataSize(sub_0)\n  dup1\n  dataOffset(sub_0)\n  0x00\n  codecopy\n  0x00\n  return\nstop\n\nsub_0: assembly {\n        /* \"FinalProject/contracts/AtomicArbitrage/benchmark.sol\":295:2942  contract Arbitrage {... */\n      mstore(0x40, 0x80)\n      callvalue\n      dup1\n      iszero\n      tag_1\n      jumpi\n      0x00\n      dup1\n      revert\n    tag_1:\n      pop\n      jumpi(tag_2, lt(calldatasize, 0x04))\n      shr(0xe0, calldataload(0x00))\n      dup1\n      0x212eaf84\n      eq\n      tag_3\n      jumpi\n    tag_2:\n      0x00\n      dup1\n      revert\n        /* \"FinalProject/contracts/AtomicArbitrage/benchmark.sol\":366:2940  function doArbitrage(uint256 amountIn, address router, address LUSD, address TIGER)... */\n    tag_3:\n      tag_4\n      0x04\n      dup1\n      calldatasize\n      sub\n      dup2\n      add\n      swap1\n      tag_5\n      swap2\n      swap1\n      tag_6\n      jump\t// in\n    tag_5:\n      tag_7\n      jump\t// in\n    tag_4:\n      mload(0x40)\n      tag_8\n      swap2\n      swap1\n      tag_9\n      jump\t// in\n    tag_8:\n      mload(0x40)\n      dup1\n      swap2\n      sub\n      swap1\n      return\n    tag_7:\n        /* \"FinalProject/contracts/AtomicArbitrage/benchmark.sol\":484:501  uint256 amountOut */\n      0x00\n        /* \"FinalProject/contracts/AtomicArbitrage/benchmark.sol\":518:542  IV3SwapRouter swapRouter */\n      dup1\n        /* \"FinalProject/contracts/AtomicArbitrage/benchmark.sol\":559:565  router */\n      dup5\n        /* \"FinalProject/contracts/AtomicArbitrage/benchmark.sol\":518:566  IV3SwapRouter swapRouter = IV3SwapRouter(router) */\n      swap1\n      pop\n        /* \"FinalProject/contracts/AtomicArbitrage/benchmark.sol\":755:930  TransferHelper.safeTransferFrom(... */\n      tag_11\n        /* \"FinalProject/contracts/AtomicArbitrage/benchmark.sol\":800:804  LUSD */\n      dup5\n        /* \"FinalProject/contracts/AtomicArbitrage/benchmark.sol\":828:838  msg.sender */\n      caller\n        /* \"FinalProject/contracts/AtomicArbitrage/benchmark.sol\":870:874  this */\n      address\n        /* \"FinalProject/contracts/AtomicArbitrage/benchmark.sol\":902:910  amountIn */\n      dup10\n        /* \"FinalProject/contracts/AtomicArbitrage/benchmark.sol\":755:786  TransferHelper.safeTransferFrom */\n      tag_12\n        /* \"FinalProject/contracts/AtomicArbitrage/benchmark.sol\":755:930  TransferHelper.safeTransferFrom(... */\n      jump\t// in\n    tag_11:\n        /* \"FinalProject/contracts/AtomicArbitrage/benchmark.sol\":996:1059  TransferHelper.safeApprove(LUSD, address(swapRouter), amountIn) */\n      tag_13\n        /* \"FinalProject/contracts/AtomicArbitrage/benchmark.sol\":1023:1027  LUSD */\n      dup5\n        /* \"FinalProject/contracts/AtomicArbitrage/benchmark.sol\":1037:1047  swapRouter */\n      dup3\n        /* \"FinalProject/contracts/AtomicArbitrage/benchmark.sol\":1050:1058  amountIn */\n      dup9\n        /* \"FinalProject/contracts/AtomicArbitrage/benchmark.sol\":996:1022  TransferHelper.safeApprove */\n      tag_14\n        /* \"FinalProject/contracts/AtomicArbitrage/benchmark.sol\":996:1059  TransferHelper.safeApprove(LUSD, address(swapRouter), amountIn) */\n      jump\t// in\n    tag_13:\n        /* \"FinalProject/contracts/AtomicArbitrage/benchmark.sol\":1172:1222  IV3SwapRouter.ExactInputSingleParams memory params */\n      0x00\n        /* \"FinalProject/contracts/AtomicArbitrage/benchmark.sol\":1225:1609  IV3SwapRouter... */\n      mload(0x40)\n      dup1\n      0xe0\n      add\n      0x40\n      mstore\n      dup1\n        /* \"FinalProject/contracts/AtomicArbitrage/benchmark.sol\":1302:1306  LUSD */\n      dup7\n        /* \"FinalProject/contracts/AtomicArbitrage/benchmark.sol\":1225:1609  IV3SwapRouter... */\n      0xffffffffffffffffffffffffffffffffffffffff\n      and\n      dup2\n      mstore\n      0x20\n      add\n        /* \"FinalProject/contracts/AtomicArbitrage/benchmark.sol\":1334:1339  TIGER */\n      dup6\n        /* \"FinalProject/contracts/AtomicArbitrage/benchmark.sol\":1225:1609  IV3SwapRouter... */\n      0xffffffffffffffffffffffffffffffffffffffff\n      and\n      dup2\n      mstore\n      0x20\n      add\n        /* \"FinalProject/contracts/AtomicArbitrage/benchmark.sol\":1362:1366  3000 */\n      0x0bb8\n        /* \"FinalProject/contracts/AtomicArbitrage/benchmark.sol\":1225:1609  IV3SwapRouter... */\n      0xffffff\n      and\n      dup2\n      mstore\n      0x20\n      add\n        /* \"FinalProject/contracts/AtomicArbitrage/benchmark.sol\":1446:1450  this */\n      address\n        /* \"FinalProject/contracts/AtomicArbitrage/benchmark.sol\":1225:1609  IV3SwapRouter... */\n      0xffffffffffffffffffffffffffffffffffffffff\n      and\n      dup2\n      mstore\n      0x20\n      add\n        /* \"FinalProject/contracts/AtomicArbitrage/benchmark.sol\":1511:1519  amountIn */\n      dup9\n        /* \"FinalProject/contracts/AtomicArbitrage/benchmark.sol\":1225:1609  IV3SwapRouter... */\n      dup2\n      mstore\n      0x20\n      add\n        /* \"FinalProject/contracts/AtomicArbitrage/benchmark.sol\":1555:1556  0 */\n      0x00\n        /* \"FinalProject/contracts/AtomicArbitrage/benchmark.sol\":1225:1609  IV3SwapRouter... */\n      dup2\n      mstore\n      0x20\n      add\n        /* \"FinalProject/contracts/AtomicArbitrage/benchmark.sol\":1593:1594  0 */\n      0x00\n        /* \"FinalProject/contracts/AtomicArbitrage/benchmark.sol\":1225:1609  IV3SwapRouter... */\n      0xffffffffffffffffffffffffffffffffffffffff\n      and\n      dup2\n      mstore\n      pop\n        /* \"FinalProject/contracts/AtomicArbitrage/benchmark.sol\":1172:1609  IV3SwapRouter.ExactInputSingleParams memory params = IV3SwapRouter... */\n      swap1\n      pop\n        /* \"FinalProject/contracts/AtomicArbitrage/benchmark.sol\":1807:1825  uint256 amountOut1 */\n      0x00\n        /* \"FinalProject/contracts/AtomicArbitrage/benchmark.sol\":1828:1838  swapRouter */\n      dup3\n        /* \"FinalProject/contracts/AtomicArbitrage/benchmark.sol\":1828:1855  swapRouter.exactInputSingle */\n      0xffffffffffffffffffffffffffffffffffffffff\n      and\n      0x04e45aaf\n        /* \"FinalProject/contracts/AtomicArbitrage/benchmark.sol\":1856:1862  params */\n      dup4\n        /* \"FinalProject/contracts/AtomicArbitrage/benchmark.sol\":1828:1863  swapRouter.exactInputSingle(params) */\n      mload(0x40)\n      dup3\n      0xffffffff\n      and\n      0xe0\n      shl\n      dup2\n      mstore\n      0x04\n      add\n      tag_15\n      swap2\n      swap1\n      tag_16\n      jump\t// in\n    tag_15:\n      0x20\n      mload(0x40)\n      dup1\n      dup4\n      sub\n      dup2\n      0x00\n      dup8\n      gas\n      call\n      iszero\n      dup1\n      iszero\n      tag_18\n      jumpi\n      returndatasize\n      0x00\n      dup1\n      returndatacopy\n      revert(0x00, returndatasize)\n    tag_18:\n      pop\n      pop\n      pop\n      pop\n      mload(0x40)\n      returndatasize\n      not(0x1f)\n      0x1f\n      dup3\n      add\n      and\n      dup3\n      add\n      dup1\n      0x40\n      mstore\n      pop\n      dup2\n      add\n      swap1\n      tag_19\n      swap2\n      swap1\n      tag_20\n      jump\t// in\n    tag_19:\n        /* \"FinalProject/contracts/AtomicArbitrage/benchmark.sol\":1807:1863  uint256 amountOut1 = swapRouter.exactInputSingle(params) */\n      swap1\n      pop\n        /* \"FinalProject/contracts/AtomicArbitrage/benchmark.sol\":507:2940  {... */\n      pop\n      pop\n      pop\n        /* \"FinalProject/contracts/AtomicArbitrage/benchmark.sol\":366:2940  function doArbitrage(uint256 amountIn, address router, address LUSD, address TIGER)... */\n      swap5\n      swap4\n      pop\n      pop\n      pop\n      pop\n      jump\t// out\n        /* \"@uniswap/lib/contracts/libraries/TransferHelper.sol\":1096:1582  function safeTransferFrom(... */\n    tag_12:\n        /* \"@uniswap/lib/contracts/libraries/TransferHelper.sol\":1314:1326  bool success */\n      0x00\n        /* \"@uniswap/lib/contracts/libraries/TransferHelper.sol\":1328:1345  bytes memory data */\n      dup1\n        /* \"@uniswap/lib/contracts/libraries/TransferHelper.sol\":1349:1354  token */\n      dup6\n        /* \"@uniswap/lib/contracts/libraries/TransferHelper.sol\":1349:1359  token.call */\n      0xffffffffffffffffffffffffffffffffffffffff\n      and\n        /* \"@uniswap/lib/contracts/libraries/TransferHelper.sol\":1383:1393  0x23b872dd */\n      0x23b872dd\n        /* \"@uniswap/lib/contracts/libraries/TransferHelper.sol\":1395:1399  from */\n      dup7\n        /* \"@uniswap/lib/contracts/libraries/TransferHelper.sol\":1401:1403  to */\n      dup7\n        /* \"@uniswap/lib/contracts/libraries/TransferHelper.sol\":1405:1410  value */\n      dup7\n        /* \"@uniswap/lib/contracts/libraries/TransferHelper.sol\":1360:1411  abi.encodeWithSelector(0x23b872dd, from, to, value) */\n      add(0x24, mload(0x40))\n      tag_22\n      swap4\n      swap3\n      swap2\n      swap1\n      tag_23\n      jump\t// in\n    tag_22:\n      mload(0x40)\n      0x20\n      dup2\n      dup4\n      sub\n      sub\n      dup2\n      mstore\n      swap1\n      0x40\n      mstore\n      swap1\n      0xe0\n      shl\n      0x20\n      dup3\n      add\n      dup1\n      mload\n      0xffffffffffffffffffffffffffffffffffffffffffffffffffffffff\n      dup4\n      dup2\n      dup4\n      and\n      or\n      dup4\n      mstore\n      pop\n      pop\n      pop\n      pop\n        /* \"@uniswap/lib/contracts/libraries/TransferHelper.sol\":1349:1412  token.call(abi.encodeWithSelector(0x23b872dd, from, to, value)) */\n      mload(0x40)\n      tag_24\n      swap2\n      swap1\n      tag_25\n      jump\t// in\n    tag_24:\n      0x00\n      mload(0x40)\n      dup1\n      dup4\n      sub\n      dup2\n      0x00\n      dup7\n      gas\n      call\n      swap2\n      pop\n      pop\n      returndatasize\n      dup1\n      0x00\n      dup2\n      eq\n      tag_28\n      jumpi\n      mload(0x40)\n      swap2\n      pop\n      and(add(returndatasize, 0x3f), not(0x1f))\n      dup3\n      add\n      0x40\n      mstore\n      returndatasize\n      dup3\n      mstore\n      returndatasize\n      0x00\n      0x20\n      dup5\n      add\n      returndatacopy\n      jump(tag_27)\n    tag_28:\n      0x60\n      swap2\n      pop\n    tag_27:\n      pop\n        /* \"@uniswap/lib/contracts/libraries/TransferHelper.sol\":1313:1412  (bool success, bytes memory data) = token.call(abi.encodeWithSelector(0x23b872dd, from, to, value)) */\n      swap2\n      pop\n      swap2\n      pop\n        /* \"@uniswap/lib/contracts/libraries/TransferHelper.sol\":1443:1450  success */\n      dup2\n        /* \"@uniswap/lib/contracts/libraries/TransferHelper.sol\":1443:1500  success && (data.length == 0 || abi.decode(data, (bool))) */\n      dup1\n      iszero\n      tag_29\n      jumpi\n      pop\n        /* \"@uniswap/lib/contracts/libraries/TransferHelper.sol\":1470:1471  0 */\n      0x00\n        /* \"@uniswap/lib/contracts/libraries/TransferHelper.sol\":1455:1459  data */\n      dup2\n        /* \"@uniswap/lib/contracts/libraries/TransferHelper.sol\":1455:1466  data.length */\n      mload\n        /* \"@uniswap/lib/contracts/libraries/TransferHelper.sol\":1455:1471  data.length == 0 */\n      eq\n        /* \"@uniswap/lib/contracts/libraries/TransferHelper.sol\":1455:1499  data.length == 0 || abi.decode(data, (bool)) */\n      dup1\n      tag_30\n      jumpi\n      pop\n        /* \"@uniswap/lib/contracts/libraries/TransferHelper.sol\":1486:1490  data */\n      dup1\n        /* \"@uniswap/lib/contracts/libraries/TransferHelper.sol\":1475:1499  abi.decode(data, (bool)) */\n      dup1\n      0x20\n      add\n      swap1\n      mload\n      dup2\n      add\n      swap1\n      tag_31\n      swap2\n      swap1\n      tag_32\n      jump\t// in\n    tag_31:\n        /* \"@uniswap/lib/contracts/libraries/TransferHelper.sol\":1455:1499  data.length == 0 || abi.decode(data, (bool)) */\n    tag_30:\n        /* \"@uniswap/lib/contracts/libraries/TransferHelper.sol\":1443:1500  success && (data.length == 0 || abi.decode(data, (bool))) */\n    tag_29:\n        /* \"@uniswap/lib/contracts/libraries/TransferHelper.sol\":1422:1575  require(... */\n      tag_33\n      jumpi\n      mload(0x40)\n      0x08c379a000000000000000000000000000000000000000000000000000000000\n      dup2\n      mstore\n      0x04\n      add\n      tag_34\n      swap1\n      tag_35\n      jump\t// in\n    tag_34:\n      mload(0x40)\n      dup1\n      swap2\n      sub\n      swap1\n      revert\n    tag_33:\n        /* \"@uniswap/lib/contracts/libraries/TransferHelper.sol\":1225:1582  {... */\n      pop\n      pop\n        /* \"@uniswap/lib/contracts/libraries/TransferHelper.sol\":1096:1582  function safeTransferFrom(... */\n      pop\n      pop\n      pop\n      pop\n      jump\t// out\n        /* \"@uniswap/lib/contracts/libraries/TransferHelper.sol\":212:646  function safeApprove(... */\n    tag_14:\n        /* \"@uniswap/lib/contracts/libraries/TransferHelper.sol\":390:402  bool success */\n      0x00\n        /* \"@uniswap/lib/contracts/libraries/TransferHelper.sol\":404:421  bytes memory data */\n      dup1\n        /* \"@uniswap/lib/contracts/libraries/TransferHelper.sol\":425:430  token */\n      dup5\n        /* \"@uniswap/lib/contracts/libraries/TransferHelper.sol\":425:435  token.call */\n      0xffffffffffffffffffffffffffffffffffffffff\n      and\n        /* \"@uniswap/lib/contracts/libraries/TransferHelper.sol\":459:469  0x095ea7b3 */\n      0x095ea7b3\n        /* \"@uniswap/lib/contracts/libraries/TransferHelper.sol\":471:473  to */\n      dup6\n        /* \"@uniswap/lib/contracts/libraries/TransferHelper.sol\":475:480  value */\n      dup6\n        /* \"@uniswap/lib/contracts/libraries/TransferHelper.sol\":436:481  abi.encodeWithSelector(0x095ea7b3, to, value) */\n      add(0x24, mload(0x40))\n      tag_37\n      swap3\n      swap2\n      swap1\n      tag_38\n      jump\t// in\n    tag_37:\n      mload(0x40)\n      0x20\n      dup2\n      dup4\n      sub\n      sub\n      dup2\n      mstore\n      swap1\n      0x40\n      mstore\n      swap1\n      0xe0\n      shl\n      0x20\n      dup3\n      add\n      dup1\n      mload\n      0xffffffffffffffffffffffffffffffffffffffffffffffffffffffff\n      dup4\n      dup2\n      dup4\n      and\n      or\n      dup4\n      mstore\n      pop\n      pop\n      pop\n      pop\n        /* \"@uniswap/lib/contracts/libraries/TransferHelper.sol\":425:482  token.call(abi.encodeWithSelector(0x095ea7b3, to, value)) */\n      mload(0x40)\n      tag_39\n      swap2\n      swap1\n      tag_25\n      jump\t// in\n    tag_39:\n      0x00\n      mload(0x40)\n      dup1\n      dup4\n      sub\n      dup2\n      0x00\n      dup7\n      gas\n      call\n      swap2\n      pop\n      pop\n      returndatasize\n      dup1\n      0x00\n      dup2\n      eq\n      tag_42\n      jumpi\n      mload(0x40)\n      swap2\n      pop\n      and(add(returndatasize, 0x3f), not(0x1f))\n      dup3\n      add\n      0x40\n      mstore\n      returndatasize\n      dup3\n      mstore\n      returndatasize\n      0x00\n      0x20\n      dup5\n      add\n      returndatacopy\n      jump(tag_41)\n    tag_42:\n      0x60\n      swap2\n      pop\n    tag_41:\n      pop\n        /* \"@uniswap/lib/contracts/libraries/TransferHelper.sol\":389:482  (bool success, bytes memory data) = token.call(abi.encodeWithSelector(0x095ea7b3, to, value)) */\n      swap2\n      pop\n      swap2\n      pop\n        /* \"@uniswap/lib/contracts/libraries/TransferHelper.sol\":513:520  success */\n      dup2\n        /* \"@uniswap/lib/contracts/libraries/TransferHelper.sol\":513:570  success && (data.length == 0 || abi.decode(data, (bool))) */\n      dup1\n      iszero\n      tag_43\n      jumpi\n      pop\n        /* \"@uniswap/lib/contracts/libraries/TransferHelper.sol\":540:541  0 */\n      0x00\n        /* \"@uniswap/lib/contracts/libraries/TransferHelper.sol\":525:529  data */\n      dup2\n        /* \"@uniswap/lib/contracts/libraries/TransferHelper.sol\":525:536  data.length */\n      mload\n        /* \"@uniswap/lib/contracts/libraries/TransferHelper.sol\":525:541  data.length == 0 */\n      eq\n        /* \"@uniswap/lib/contracts/libraries/TransferHelper.sol\":525:569  data.length == 0 || abi.decode(data, (bool)) */\n      dup1\n      tag_44\n      jumpi\n      pop\n        /* \"@uniswap/lib/contracts/libraries/TransferHelper.sol\":556:560  data */\n      dup1\n        /* \"@uniswap/lib/contracts/libraries/TransferHelper.sol\":545:569  abi.decode(data, (bool)) */\n      dup1\n      0x20\n      add\n      swap1\n      mload\n      dup2\n      add\n      swap1\n      tag_45\n      swap2\n      swap1\n      tag_32\n      jump\t// in\n    tag_45:\n        /* \"@uniswap/lib/contracts/libraries/TransferHelper.sol\":525:569  data.length == 0 || abi.decode(data, (bool)) */\n    tag_44:\n        /* \"@uniswap/lib/contracts/libraries/TransferHelper.sol\":513:570  success && (data.length == 0 || abi.decode(data, (bool))) */\n    tag_43:\n        /* \"@uniswap/lib/contracts/libraries/TransferHelper.sol\":492:639  require(... */\n      tag_46\n      jumpi\n      mload(0x40)\n      0x08c379a000000000000000000000000000000000000000000000000000000000\n      dup2\n      mstore\n      0x04\n      add\n      tag_47\n      swap1\n      tag_48\n      jump\t// in\n    tag_47:\n      mload(0x40)\n      dup1\n      swap2\n      sub\n      swap1\n      revert\n    tag_46:\n        /* \"@uniswap/lib/contracts/libraries/TransferHelper.sol\":314:646  {... */\n      pop\n      pop\n        /* \"@uniswap/lib/contracts/libraries/TransferHelper.sol\":212:646  function safeApprove(... */\n      pop\n      pop\n      pop\n      jump\t// out\n        /* \"#utility.yul\":88:205   */\n    tag_50:\n        /* \"#utility.yul\":197:198   */\n      0x00\n        /* \"#utility.yul\":194:195   */\n      dup1\n        /* \"#utility.yul\":187:199   */\n      revert\n        /* \"#utility.yul\":334:411   */\n    tag_52:\n        /* \"#utility.yul\":371:378   */\n      0x00\n        /* \"#utility.yul\":400:405   */\n      dup2\n        /* \"#utility.yul\":389:405   */\n      swap1\n      pop\n        /* \"#utility.yul\":334:411   */\n      swap2\n      swap1\n      pop\n      jump\t// out\n        /* \"#utility.yul\":417:539   */\n    tag_53:\n        /* \"#utility.yul\":490:514   */\n      tag_86\n        /* \"#utility.yul\":508:513   */\n      dup2\n        /* \"#utility.yul\":490:514   */\n      tag_52\n      jump\t// in\n    tag_86:\n        /* \"#utility.yul\":483:488   */\n      dup2\n        /* \"#utility.yul\":480:515   */\n      eq\n        /* \"#utility.yul\":470:533   */\n      tag_87\n      jumpi\n        /* \"#utility.yul\":529:530   */\n      0x00\n        /* \"#utility.yul\":526:527   */\n      dup1\n        /* \"#utility.yul\":519:531   */\n      revert\n        /* \"#utility.yul\":470:533   */\n    tag_87:\n        /* \"#utility.yul\":417:539   */\n      pop\n      jump\t// out\n        /* \"#utility.yul\":545:684   */\n    tag_54:\n        /* \"#utility.yul\":591:596   */\n      0x00\n        /* \"#utility.yul\":629:635   */\n      dup2\n        /* \"#utility.yul\":616:636   */\n      calldataload\n        /* \"#utility.yul\":607:636   */\n      swap1\n      pop\n        /* \"#utility.yul\":645:678   */\n      tag_89\n        /* \"#utility.yul\":672:677   */\n      dup2\n        /* \"#utility.yul\":645:678   */\n      tag_53\n      jump\t// in\n    tag_89:\n        /* \"#utility.yul\":545:684   */\n      swap3\n      swap2\n      pop\n      pop\n      jump\t// out\n        /* \"#utility.yul\":690:816   */\n    tag_55:\n        /* \"#utility.yul\":727:734   */\n      0x00\n        /* \"#utility.yul\":767:809   */\n      0xffffffffffffffffffffffffffffffffffffffff\n        /* \"#utility.yul\":760:765   */\n      dup3\n        /* \"#utility.yul\":756:810   */\n      and\n        /* \"#utility.yul\":745:810   */\n      swap1\n      pop\n        /* \"#utility.yul\":690:816   */\n      swap2\n      swap1\n      pop\n      jump\t// out\n        /* \"#utility.yul\":822:918   */\n    tag_56:\n        /* \"#utility.yul\":859:866   */\n      0x00\n        /* \"#utility.yul\":888:912   */\n      tag_92\n        /* \"#utility.yul\":906:911   */\n      dup3\n        /* \"#utility.yul\":888:912   */\n      tag_55\n      jump\t// in\n    tag_92:\n        /* \"#utility.yul\":877:912   */\n      swap1\n      pop\n        /* \"#utility.yul\":822:918   */\n      swap2\n      swap1\n      pop\n      jump\t// out\n        /* \"#utility.yul\":924:1046   */\n    tag_57:\n        /* \"#utility.yul\":997:1021   */\n      tag_94\n        /* \"#utility.yul\":1015:1020   */\n      dup2\n        /* \"#utility.yul\":997:1021   */\n      tag_56\n      jump\t// in\n    tag_94:\n        /* \"#utility.yul\":990:995   */\n      dup2\n        /* \"#utility.yul\":987:1022   */\n      eq\n        /* \"#utility.yul\":977:1040   */\n      tag_95\n      jumpi\n        /* \"#utility.yul\":1036:1037   */\n      0x00\n        /* \"#utility.yul\":1033:1034   */\n      dup1\n        /* \"#utility.yul\":1026:1038   */\n      revert\n        /* \"#utility.yul\":977:1040   */\n    tag_95:\n        /* \"#utility.yul\":924:1046   */\n      pop\n      jump\t// out\n        /* \"#utility.yul\":1052:1191   */\n    tag_58:\n        /* \"#utility.yul\":1098:1103   */\n      0x00\n        /* \"#utility.yul\":1136:1142   */\n      dup2\n        /* \"#utility.yul\":1123:1143   */\n      calldataload\n        /* \"#utility.yul\":1114:1143   */\n      swap1\n      pop\n        /* \"#utility.yul\":1152:1185   */\n      tag_97\n        /* \"#utility.yul\":1179:1184   */\n      dup2\n        /* \"#utility.yul\":1152:1185   */\n      tag_57\n      jump\t// in\n    tag_97:\n        /* \"#utility.yul\":1052:1191   */\n      swap3\n      swap2\n      pop\n      pop\n      jump\t// out\n        /* \"#utility.yul\":1197:1962   */\n    tag_6:\n        /* \"#utility.yul\":1283:1289   */\n      0x00\n        /* \"#utility.yul\":1291:1297   */\n      dup1\n        /* \"#utility.yul\":1299:1305   */\n      0x00\n        /* \"#utility.yul\":1307:1313   */\n      dup1\n        /* \"#utility.yul\":1356:1359   */\n      0x80\n        /* \"#utility.yul\":1344:1353   */\n      dup6\n        /* \"#utility.yul\":1335:1342   */\n      dup8\n        /* \"#utility.yul\":1331:1354   */\n      sub\n        /* \"#utility.yul\":1327:1360   */\n      slt\n        /* \"#utility.yul\":1324:1444   */\n      iszero\n      tag_99\n      jumpi\n        /* \"#utility.yul\":1363:1442   */\n      tag_100\n      tag_50\n      jump\t// in\n    tag_100:\n        /* \"#utility.yul\":1324:1444   */\n    tag_99:\n        /* \"#utility.yul\":1483:1484   */\n      0x00\n        /* \"#utility.yul\":1508:1561   */\n      tag_101\n        /* \"#utility.yul\":1553:1560   */\n      dup8\n        /* \"#utility.yul\":1544:1550   */\n      dup3\n        /* \"#utility.yul\":1533:1542   */\n      dup9\n        /* \"#utility.yul\":1529:1551   */\n      add\n        /* \"#utility.yul\":1508:1561   */\n      tag_54\n      jump\t// in\n    tag_101:\n        /* \"#utility.yul\":1498:1561   */\n      swap5\n      pop\n        /* \"#utility.yul\":1454:1571   */\n      pop\n        /* \"#utility.yul\":1610:1612   */\n      0x20\n        /* \"#utility.yul\":1636:1689   */\n      tag_102\n        /* \"#utility.yul\":1681:1688   */\n      dup8\n        /* \"#utility.yul\":1672:1678   */\n      dup3\n        /* \"#utility.yul\":1661:1670   */\n      dup9\n        /* \"#utility.yul\":1657:1679   */\n      add\n        /* \"#utility.yul\":1636:1689   */\n      tag_58\n      jump\t// in\n    tag_102:\n        /* \"#utility.yul\":1626:1689   */\n      swap4\n      pop\n        /* \"#utility.yul\":1581:1699   */\n      pop\n        /* \"#utility.yul\":1738:1740   */\n      0x40\n        /* \"#utility.yul\":1764:1817   */\n      tag_103\n        /* \"#utility.yul\":1809:1816   */\n      dup8\n        /* \"#utility.yul\":1800:1806   */\n      dup3\n        /* \"#utility.yul\":1789:1798   */\n      dup9\n        /* \"#utility.yul\":1785:1807   */\n      add\n        /* \"#utility.yul\":1764:1817   */\n      tag_58\n      jump\t// in\n    tag_103:\n        /* \"#utility.yul\":1754:1817   */\n      swap3\n      pop\n        /* \"#utility.yul\":1709:1827   */\n      pop\n        /* \"#utility.yul\":1866:1868   */\n      0x60\n        /* \"#utility.yul\":1892:1945   */\n      tag_104\n        /* \"#utility.yul\":1937:1944   */\n      dup8\n        /* \"#utility.yul\":1928:1934   */\n      dup3\n        /* \"#utility.yul\":1917:1926   */\n      dup9\n        /* \"#utility.yul\":1913:1935   */\n      add\n        /* \"#utility.yul\":1892:1945   */\n      tag_58\n      jump\t// in\n    tag_104:\n        /* \"#utility.yul\":1882:1945   */\n      swap2\n      pop\n        /* \"#utility.yul\":1837:1955   */\n      pop\n        /* \"#utility.yul\":1197:1962   */\n      swap3\n      swap6\n      swap2\n      swap5\n      pop\n      swap3\n      pop\n      jump\t// out\n        /* \"#utility.yul\":1968:2086   */\n    tag_59:\n        /* \"#utility.yul\":2055:2079   */\n      tag_106\n        /* \"#utility.yul\":2073:2078   */\n      dup2\n        /* \"#utility.yul\":2055:2079   */\n      tag_52\n      jump\t// in\n    tag_106:\n        /* \"#utility.yul\":2050:2053   */\n      dup3\n        /* \"#utility.yul\":2043:2080   */\n      mstore\n        /* \"#utility.yul\":1968:2086   */\n      pop\n      pop\n      jump\t// out\n        /* \"#utility.yul\":2092:2314   */\n    tag_9:\n        /* \"#utility.yul\":2185:2189   */\n      0x00\n        /* \"#utility.yul\":2223:2225   */\n      0x20\n        /* \"#utility.yul\":2212:2221   */\n      dup3\n        /* \"#utility.yul\":2208:2226   */\n      add\n        /* \"#utility.yul\":2200:2226   */\n      swap1\n      pop\n        /* \"#utility.yul\":2236:2307   */\n      tag_108\n        /* \"#utility.yul\":2304:2305   */\n      0x00\n        /* \"#utility.yul\":2293:2302   */\n      dup4\n        /* \"#utility.yul\":2289:2306   */\n      add\n        /* \"#utility.yul\":2280:2286   */\n      dup5\n        /* \"#utility.yul\":2236:2307   */\n      tag_59\n      jump\t// in\n    tag_108:\n        /* \"#utility.yul\":2092:2314   */\n      swap3\n      swap2\n      pop\n      pop\n      jump\t// out\n        /* \"#utility.yul\":2320:2428   */\n    tag_60:\n        /* \"#utility.yul\":2397:2421   */\n      tag_110\n        /* \"#utility.yul\":2415:2420   */\n      dup2\n        /* \"#utility.yul\":2397:2421   */\n      tag_56\n      jump\t// in\n    tag_110:\n        /* \"#utility.yul\":2392:2395   */\n      dup3\n        /* \"#utility.yul\":2385:2422   */\n      mstore\n        /* \"#utility.yul\":2320:2428   */\n      pop\n      pop\n      jump\t// out\n        /* \"#utility.yul\":2434:2525   */\n    tag_61:\n        /* \"#utility.yul\":2470:2477   */\n      0x00\n        /* \"#utility.yul\":2510:2518   */\n      0xffffff\n        /* \"#utility.yul\":2503:2508   */\n      dup3\n        /* \"#utility.yul\":2499:2519   */\n      and\n        /* \"#utility.yul\":2488:2519   */\n      swap1\n      pop\n        /* \"#utility.yul\":2434:2525   */\n      swap2\n      swap1\n      pop\n      jump\t// out\n        /* \"#utility.yul\":2531:2636   */\n    tag_62:\n        /* \"#utility.yul\":2606:2629   */\n      tag_113\n        /* \"#utility.yul\":2623:2628   */\n      dup2\n        /* \"#utility.yul\":2606:2629   */\n      tag_61\n      jump\t// in\n    tag_113:\n        /* \"#utility.yul\":2601:2604   */\n      dup3\n        /* \"#utility.yul\":2594:2630   */\n      mstore\n        /* \"#utility.yul\":2531:2636   */\n      pop\n      pop\n      jump\t// out\n        /* \"#utility.yul\":2642:2750   */\n    tag_63:\n        /* \"#utility.yul\":2719:2743   */\n      tag_115\n        /* \"#utility.yul\":2737:2742   */\n      dup2\n        /* \"#utility.yul\":2719:2743   */\n      tag_52\n      jump\t// in\n    tag_115:\n        /* \"#utility.yul\":2714:2717   */\n      dup3\n        /* \"#utility.yul\":2707:2744   */\n      mstore\n        /* \"#utility.yul\":2642:2750   */\n      pop\n      pop\n      jump\t// out\n        /* \"#utility.yul\":2756:2864   */\n    tag_64:\n        /* \"#utility.yul\":2833:2857   */\n      tag_117\n        /* \"#utility.yul\":2851:2856   */\n      dup2\n        /* \"#utility.yul\":2833:2857   */\n      tag_55\n      jump\t// in\n    tag_117:\n        /* \"#utility.yul\":2828:2831   */\n      dup3\n        /* \"#utility.yul\":2821:2858   */\n      mstore\n        /* \"#utility.yul\":2756:2864   */\n      pop\n      pop\n      jump\t// out\n        /* \"#utility.yul\":2968:4411   */\n    tag_65:\n        /* \"#utility.yul\":3143:3147   */\n      0xe0\n        /* \"#utility.yul\":3138:3141   */\n      dup3\n        /* \"#utility.yul\":3134:3148   */\n      add\n        /* \"#utility.yul\":3233:3237   */\n      0x00\n        /* \"#utility.yul\":3226:3231   */\n      dup3\n        /* \"#utility.yul\":3222:3238   */\n      add\n        /* \"#utility.yul\":3216:3239   */\n      mload\n        /* \"#utility.yul\":3252:3315   */\n      tag_119\n        /* \"#utility.yul\":3309:3313   */\n      0x00\n        /* \"#utility.yul\":3304:3307   */\n      dup6\n        /* \"#utility.yul\":3300:3314   */\n      add\n        /* \"#utility.yul\":3286:3298   */\n      dup3\n        /* \"#utility.yul\":3252:3315   */\n      tag_60\n      jump\t// in\n    tag_119:\n        /* \"#utility.yul\":3158:3325   */\n      pop\n        /* \"#utility.yul\":3411:3415   */\n      0x20\n        /* \"#utility.yul\":3404:3409   */\n      dup3\n        /* \"#utility.yul\":3400:3416   */\n      add\n        /* \"#utility.yul\":3394:3417   */\n      mload\n        /* \"#utility.yul\":3430:3493   */\n      tag_120\n        /* \"#utility.yul\":3487:3491   */\n      0x20\n        /* \"#utility.yul\":3482:3485   */\n      dup6\n        /* \"#utility.yul\":3478:3492   */\n      add\n        /* \"#utility.yul\":3464:3476   */\n      dup3\n        /* \"#utility.yul\":3430:3493   */\n      tag_60\n      jump\t// in\n    tag_120:\n        /* \"#utility.yul\":3335:3503   */\n      pop\n        /* \"#utility.yul\":3584:3588   */\n      0x40\n        /* \"#utility.yul\":3577:3582   */\n      dup3\n        /* \"#utility.yul\":3573:3589   */\n      add\n        /* \"#utility.yul\":3567:3590   */\n      mload\n        /* \"#utility.yul\":3603:3664   */\n      tag_121\n        /* \"#utility.yul\":3658:3662   */\n      0x40\n        /* \"#utility.yul\":3653:3656   */\n      dup6\n        /* \"#utility.yul\":3649:3663   */\n      add\n        /* \"#utility.yul\":3635:3647   */\n      dup3\n        /* \"#utility.yul\":3603:3664   */\n      tag_62\n      jump\t// in\n    tag_121:\n        /* \"#utility.yul\":3513:3674   */\n      pop\n        /* \"#utility.yul\":3761:3765   */\n      0x60\n        /* \"#utility.yul\":3754:3759   */\n      dup3\n        /* \"#utility.yul\":3750:3766   */\n      add\n        /* \"#utility.yul\":3744:3767   */\n      mload\n        /* \"#utility.yul\":3780:3843   */\n      tag_122\n        /* \"#utility.yul\":3837:3841   */\n      0x60\n        /* \"#utility.yul\":3832:3835   */\n      dup6\n        /* \"#utility.yul\":3828:3842   */\n      add\n        /* \"#utility.yul\":3814:3826   */\n      dup3\n        /* \"#utility.yul\":3780:3843   */\n      tag_60\n      jump\t// in\n    tag_122:\n        /* \"#utility.yul\":3684:3853   */\n      pop\n        /* \"#utility.yul\":3939:3943   */\n      0x80\n        /* \"#utility.yul\":3932:3937   */\n      dup3\n        /* \"#utility.yul\":3928:3944   */\n      add\n        /* \"#utility.yul\":3922:3945   */\n      mload\n        /* \"#utility.yul\":3958:4021   */\n      tag_123\n        /* \"#utility.yul\":4015:4019   */\n      0x80\n        /* \"#utility.yul\":4010:4013   */\n      dup6\n        /* \"#utility.yul\":4006:4020   */\n      add\n        /* \"#utility.yul\":3992:4004   */\n      dup3\n        /* \"#utility.yul\":3958:4021   */\n      tag_63\n      jump\t// in\n    tag_123:\n        /* \"#utility.yul\":3863:4031   */\n      pop\n        /* \"#utility.yul\":4125:4129   */\n      0xa0\n        /* \"#utility.yul\":4118:4123   */\n      dup3\n        /* \"#utility.yul\":4114:4130   */\n      add\n        /* \"#utility.yul\":4108:4131   */\n      mload\n        /* \"#utility.yul\":4144:4207   */\n      tag_124\n        /* \"#utility.yul\":4201:4205   */\n      0xa0\n        /* \"#utility.yul\":4196:4199   */\n      dup6\n        /* \"#utility.yul\":4192:4206   */\n      add\n        /* \"#utility.yul\":4178:4190   */\n      dup3\n        /* \"#utility.yul\":4144:4207   */\n      tag_63\n      jump\t// in\n    tag_124:\n        /* \"#utility.yul\":4041:4217   */\n      pop\n        /* \"#utility.yul\":4312:4316   */\n      0xc0\n        /* \"#utility.yul\":4305:4310   */\n      dup3\n        /* \"#utility.yul\":4301:4317   */\n      add\n        /* \"#utility.yul\":4295:4318   */\n      mload\n        /* \"#utility.yul\":4331:4394   */\n      tag_125\n        /* \"#utility.yul\":4388:4392   */\n      0xc0\n        /* \"#utility.yul\":4383:4386   */\n      dup6\n        /* \"#utility.yul\":4379:4393   */\n      add\n        /* \"#utility.yul\":4365:4377   */\n      dup3\n        /* \"#utility.yul\":4331:4394   */\n      tag_64\n      jump\t// in\n    tag_125:\n        /* \"#utility.yul\":4227:4404   */\n      pop\n        /* \"#utility.yul\":3112:4411   */\n      pop\n        /* \"#utility.yul\":2968:4411   */\n      pop\n      pop\n      jump\t// out\n        /* \"#utility.yul\":4417:4796   */\n    tag_16:\n        /* \"#utility.yul\":4588:4592   */\n      0x00\n        /* \"#utility.yul\":4626:4629   */\n      0xe0\n        /* \"#utility.yul\":4615:4624   */\n      dup3\n        /* \"#utility.yul\":4611:4630   */\n      add\n        /* \"#utility.yul\":4603:4630   */\n      swap1\n      pop\n        /* \"#utility.yul\":4640:4789   */\n      tag_127\n        /* \"#utility.yul\":4786:4787   */\n      0x00\n        /* \"#utility.yul\":4775:4784   */\n      dup4\n        /* \"#utility.yul\":4771:4788   */\n      add\n        /* \"#utility.yul\":4762:4768   */\n      dup5\n        /* \"#utility.yul\":4640:4789   */\n      tag_65\n      jump\t// in\n    tag_127:\n        /* \"#utility.yul\":4417:4796   */\n      swap3\n      swap2\n      pop\n      pop\n      jump\t// out\n        /* \"#utility.yul\":4802:4945   */\n    tag_66:\n        /* \"#utility.yul\":4859:4864   */\n      0x00\n        /* \"#utility.yul\":4890:4896   */\n      dup2\n        /* \"#utility.yul\":4884:4897   */\n      mload\n        /* \"#utility.yul\":4875:4897   */\n      swap1\n      pop\n        /* \"#utility.yul\":4906:4939   */\n      tag_129\n        /* \"#utility.yul\":4933:4938   */\n      dup2\n        /* \"#utility.yul\":4906:4939   */\n      tag_53\n      jump\t// in\n    tag_129:\n        /* \"#utility.yul\":4802:4945   */\n      swap3\n      swap2\n      pop\n      pop\n      jump\t// out\n        /* \"#utility.yul\":4951:5302   */\n    tag_20:\n        /* \"#utility.yul\":5021:5027   */\n      0x00\n        /* \"#utility.yul\":5070:5072   */\n      0x20\n        /* \"#utility.yul\":5058:5067   */\n      dup3\n        /* \"#utility.yul\":5049:5056   */\n      dup5\n        /* \"#utility.yul\":5045:5068   */\n      sub\n        /* \"#utility.yul\":5041:5073   */\n      slt\n        /* \"#utility.yul\":5038:5157   */\n      iszero\n      tag_131\n      jumpi\n        /* \"#utility.yul\":5076:5155   */\n      tag_132\n      tag_50\n      jump\t// in\n    tag_132:\n        /* \"#utility.yul\":5038:5157   */\n    tag_131:\n        /* \"#utility.yul\":5196:5197   */\n      0x00\n        /* \"#utility.yul\":5221:5285   */\n      tag_133\n        /* \"#utility.yul\":5277:5284   */\n      dup5\n        /* \"#utility.yul\":5268:5274   */\n      dup3\n        /* \"#utility.yul\":5257:5266   */\n      dup6\n        /* \"#utility.yul\":5253:5275   */\n      add\n        /* \"#utility.yul\":5221:5285   */\n      tag_66\n      jump\t// in\n    tag_133:\n        /* \"#utility.yul\":5211:5285   */\n      swap2\n      pop\n        /* \"#utility.yul\":5167:5295   */\n      pop\n        /* \"#utility.yul\":4951:5302   */\n      swap3\n      swap2\n      pop\n      pop\n      jump\t// out\n        /* \"#utility.yul\":5308:5426   */\n    tag_67:\n        /* \"#utility.yul\":5395:5419   */\n      tag_135\n        /* \"#utility.yul\":5413:5418   */\n      dup2\n        /* \"#utility.yul\":5395:5419   */\n      tag_56\n      jump\t// in\n    tag_135:\n        /* \"#utility.yul\":5390:5393   */\n      dup3\n        /* \"#utility.yul\":5383:5420   */\n      mstore\n        /* \"#utility.yul\":5308:5426   */\n      pop\n      pop\n      jump\t// out\n        /* \"#utility.yul\":5432:5874   */\n    tag_23:\n        /* \"#utility.yul\":5581:5585   */\n      0x00\n        /* \"#utility.yul\":5619:5621   */\n      0x60\n        /* \"#utility.yul\":5608:5617   */\n      dup3\n        /* \"#utility.yul\":5604:5622   */\n      add\n        /* \"#utility.yul\":5596:5622   */\n      swap1\n      pop\n        /* \"#utility.yul\":5632:5703   */\n      tag_137\n        /* \"#utility.yul\":5700:5701   */\n      0x00\n        /* \"#utility.yul\":5689:5698   */\n      dup4\n        /* \"#utility.yul\":5685:5702   */\n      add\n        /* \"#utility.yul\":5676:5682   */\n      dup7\n        /* \"#utility.yul\":5632:5703   */\n      tag_67\n      jump\t// in\n    tag_137:\n        /* \"#utility.yul\":5713:5785   */\n      tag_138\n        /* \"#utility.yul\":5781:5783   */\n      0x20\n        /* \"#utility.yul\":5770:5779   */\n      dup4\n        /* \"#utility.yul\":5766:5784   */\n      add\n        /* \"#utility.yul\":5757:5763   */\n      dup6\n        /* \"#utility.yul\":5713:5785   */\n      tag_67\n      jump\t// in\n    tag_138:\n        /* \"#utility.yul\":5795:5867   */\n      tag_139\n        /* \"#utility.yul\":5863:5865   */\n      0x40\n        /* \"#utility.yul\":5852:5861   */\n      dup4\n        /* \"#utility.yul\":5848:5866   */\n      add\n        /* \"#utility.yul\":5839:5845   */\n      dup5\n        /* \"#utility.yul\":5795:5867   */\n      tag_59\n      jump\t// in\n    tag_139:\n        /* \"#utility.yul\":5432:5874   */\n      swap5\n      swap4\n      pop\n      pop\n      pop\n      pop\n      jump\t// out\n        /* \"#utility.yul\":5880:5978   */\n    tag_68:\n        /* \"#utility.yul\":5931:5937   */\n      0x00\n        /* \"#utility.yul\":5965:5970   */\n      dup2\n        /* \"#utility.yul\":5959:5971   */\n      mload\n        /* \"#utility.yul\":5949:5971   */\n      swap1\n      pop\n        /* \"#utility.yul\":5880:5978   */\n      swap2\n      swap1\n      pop\n      jump\t// out\n        /* \"#utility.yul\":5984:6131   */\n    tag_69:\n        /* \"#utility.yul\":6085:6096   */\n      0x00\n        /* \"#utility.yul\":6122:6125   */\n      dup2\n        /* \"#utility.yul\":6107:6125   */\n      swap1\n      pop\n        /* \"#utility.yul\":5984:6131   */\n      swap3\n      swap2\n      pop\n      pop\n      jump\t// out\n        /* \"#utility.yul\":6137:6276   */\n    tag_70:\n        /* \"#utility.yul\":6226:6232   */\n      dup3\n        /* \"#utility.yul\":6221:6224   */\n      dup2\n        /* \"#utility.yul\":6216:6219   */\n      dup4\n        /* \"#utility.yul\":6210:6233   */\n      mcopy\n        /* \"#utility.yul\":6267:6268   */\n      0x00\n        /* \"#utility.yul\":6258:6264   */\n      dup4\n        /* \"#utility.yul\":6253:6256   */\n      dup4\n        /* \"#utility.yul\":6249:6265   */\n      add\n        /* \"#utility.yul\":6242:6269   */\n      mstore\n        /* \"#utility.yul\":6137:6276   */\n      pop\n      pop\n      pop\n      jump\t// out\n        /* \"#utility.yul\":6282:6668   */\n    tag_71:\n        /* \"#utility.yul\":6386:6389   */\n      0x00\n        /* \"#utility.yul\":6414:6452   */\n      tag_144\n        /* \"#utility.yul\":6446:6451   */\n      dup3\n        /* \"#utility.yul\":6414:6452   */\n      tag_68\n      jump\t// in\n    tag_144:\n        /* \"#utility.yul\":6468:6556   */\n      tag_145\n        /* \"#utility.yul\":6549:6555   */\n      dup2\n        /* \"#utility.yul\":6544:6547   */\n      dup6\n        /* \"#utility.yul\":6468:6556   */\n      tag_69\n      jump\t// in\n    tag_145:\n        /* \"#utility.yul\":6461:6556   */\n      swap4\n      pop\n        /* \"#utility.yul\":6565:6630   */\n      tag_146\n        /* \"#utility.yul\":6623:6629   */\n      dup2\n        /* \"#utility.yul\":6618:6621   */\n      dup6\n        /* \"#utility.yul\":6611:6615   */\n      0x20\n        /* \"#utility.yul\":6604:6609   */\n      dup7\n        /* \"#utility.yul\":6600:6616   */\n      add\n        /* \"#utility.yul\":6565:6630   */\n      tag_70\n      jump\t// in\n    tag_146:\n        /* \"#utility.yul\":6655:6661   */\n      dup1\n        /* \"#utility.yul\":6650:6653   */\n      dup5\n        /* \"#utility.yul\":6646:6662   */\n      add\n        /* \"#utility.yul\":6639:6662   */\n      swap2\n      pop\n        /* \"#utility.yul\":6390:6668   */\n      pop\n        /* \"#utility.yul\":6282:6668   */\n      swap3\n      swap2\n      pop\n      pop\n      jump\t// out\n        /* \"#utility.yul\":6674:6945   */\n    tag_25:\n        /* \"#utility.yul\":6804:6807   */\n      0x00\n        /* \"#utility.yul\":6826:6919   */\n      tag_148\n        /* \"#utility.yul\":6915:6918   */\n      dup3\n        /* \"#utility.yul\":6906:6912   */\n      dup5\n        /* \"#utility.yul\":6826:6919   */\n      tag_71\n      jump\t// in\n    tag_148:\n        /* \"#utility.yul\":6819:6919   */\n      swap2\n      pop\n        /* \"#utility.yul\":6936:6939   */\n      dup2\n        /* \"#utility.yul\":6929:6939   */\n      swap1\n      pop\n        /* \"#utility.yul\":6674:6945   */\n      swap3\n      swap2\n      pop\n      pop\n      jump\t// out\n        /* \"#utility.yul\":6951:7041   */\n    tag_72:\n        /* \"#utility.yul\":6985:6992   */\n      0x00\n        /* \"#utility.yul\":7028:7033   */\n      dup2\n        /* \"#utility.yul\":7021:7034   */\n      iszero\n        /* \"#utility.yul\":7014:7035   */\n      iszero\n        /* \"#utility.yul\":7003:7035   */\n      swap1\n      pop\n        /* \"#utility.yul\":6951:7041   */\n      swap2\n      swap1\n      pop\n      jump\t// out\n        /* \"#utility.yul\":7047:7163   */\n    tag_73:\n        /* \"#utility.yul\":7117:7138   */\n      tag_151\n        /* \"#utility.yul\":7132:7137   */\n      dup2\n        /* \"#utility.yul\":7117:7138   */\n      tag_72\n      jump\t// in\n    tag_151:\n        /* \"#utility.yul\":7110:7115   */\n      dup2\n        /* \"#utility.yul\":7107:7139   */\n      eq\n        /* \"#utility.yul\":7097:7157   */\n      tag_152\n      jumpi\n        /* \"#utility.yul\":7153:7154   */\n      0x00\n        /* \"#utility.yul\":7150:7151   */\n      dup1\n        /* \"#utility.yul\":7143:7155   */\n      revert\n        /* \"#utility.yul\":7097:7157   */\n    tag_152:\n        /* \"#utility.yul\":7047:7163   */\n      pop\n      jump\t// out\n        /* \"#utility.yul\":7169:7306   */\n    tag_74:\n        /* \"#utility.yul\":7223:7228   */\n      0x00\n        /* \"#utility.yul\":7254:7260   */\n      dup2\n        /* \"#utility.yul\":7248:7261   */\n      mload\n        /* \"#utility.yul\":7239:7261   */\n      swap1\n      pop\n        /* \"#utility.yul\":7270:7300   */\n      tag_154\n        /* \"#utility.yul\":7294:7299   */\n      dup2\n        /* \"#utility.yul\":7270:7300   */\n      tag_73\n      jump\t// in\n    tag_154:\n        /* \"#utility.yul\":7169:7306   */\n      swap3\n      swap2\n      pop\n      pop\n      jump\t// out\n        /* \"#utility.yul\":7312:7657   */\n    tag_32:\n        /* \"#utility.yul\":7379:7385   */\n      0x00\n        /* \"#utility.yul\":7428:7430   */\n      0x20\n        /* \"#utility.yul\":7416:7425   */\n      dup3\n        /* \"#utility.yul\":7407:7414   */\n      dup5\n        /* \"#utility.yul\":7403:7426   */\n      sub\n        /* \"#utility.yul\":7399:7431   */\n      slt\n        /* \"#utility.yul\":7396:7515   */\n      iszero\n      tag_156\n      jumpi\n        /* \"#utility.yul\":7434:7513   */\n      tag_157\n      tag_50\n      jump\t// in\n    tag_157:\n        /* \"#utility.yul\":7396:7515   */\n    tag_156:\n        /* \"#utility.yul\":7554:7555   */\n      0x00\n        /* \"#utility.yul\":7579:7640   */\n      tag_158\n        /* \"#utility.yul\":7632:7639   */\n      dup5\n        /* \"#utility.yul\":7623:7629   */\n      dup3\n        /* \"#utility.yul\":7612:7621   */\n      dup6\n        /* \"#utility.yul\":7608:7630   */\n      add\n        /* \"#utility.yul\":7579:7640   */\n      tag_74\n      jump\t// in\n    tag_158:\n        /* \"#utility.yul\":7569:7640   */\n      swap2\n      pop\n        /* \"#utility.yul\":7525:7650   */\n      pop\n        /* \"#utility.yul\":7312:7657   */\n      swap3\n      swap2\n      pop\n      pop\n      jump\t// out\n        /* \"#utility.yul\":7663:7832   */\n    tag_75:\n        /* \"#utility.yul\":7747:7758   */\n      0x00\n        /* \"#utility.yul\":7781:7787   */\n      dup3\n        /* \"#utility.yul\":7776:7779   */\n      dup3\n        /* \"#utility.yul\":7769:7788   */\n      mstore\n        /* \"#utility.yul\":7821:7825   */\n      0x20\n        /* \"#utility.yul\":7816:7819   */\n      dup3\n        /* \"#utility.yul\":7812:7826   */\n      add\n        /* \"#utility.yul\":7797:7826   */\n      swap1\n      pop\n        /* \"#utility.yul\":7663:7832   */\n      swap3\n      swap2\n      pop\n      pop\n      jump\t// out\n        /* \"#utility.yul\":7838:8074   */\n    tag_76:\n        /* \"#utility.yul\":7978:8012   */\n      0x5472616e7366657248656c7065723a3a7472616e7366657246726f6d3a207472\n        /* \"#utility.yul\":7974:7975   */\n      0x00\n        /* \"#utility.yul\":7966:7972   */\n      dup3\n        /* \"#utility.yul\":7962:7976   */\n      add\n        /* \"#utility.yul\":7955:8013   */\n      mstore\n        /* \"#utility.yul\":8047:8066   */\n      0x616e7366657246726f6d206661696c6564000000000000000000000000000000\n        /* \"#utility.yul\":8042:8044   */\n      0x20\n        /* \"#utility.yul\":8034:8040   */\n      dup3\n        /* \"#utility.yul\":8030:8045   */\n      add\n        /* \"#utility.yul\":8023:8067   */\n      mstore\n        /* \"#utility.yul\":7838:8074   */\n      pop\n      jump\t// out\n        /* \"#utility.yul\":8080:8446   */\n    tag_77:\n        /* \"#utility.yul\":8222:8225   */\n      0x00\n        /* \"#utility.yul\":8243:8310   */\n      tag_162\n        /* \"#utility.yul\":8307:8309   */\n      0x31\n        /* \"#utility.yul\":8302:8305   */\n      dup4\n        /* \"#utility.yul\":8243:8310   */\n      tag_75\n      jump\t// in\n    tag_162:\n        /* \"#utility.yul\":8236:8310   */\n      swap2\n      pop\n        /* \"#utility.yul\":8319:8412   */\n      tag_163\n        /* \"#utility.yul\":8408:8411   */\n      dup3\n        /* \"#utility.yul\":8319:8412   */\n      tag_76\n      jump\t// in\n    tag_163:\n        /* \"#utility.yul\":8437:8439   */\n      0x40\n        /* \"#utility.yul\":8432:8435   */\n      dup3\n        /* \"#utility.yul\":8428:8440   */\n      add\n        /* \"#utility.yul\":8421:8440   */\n      swap1\n      pop\n        /* \"#utility.yul\":8080:8446   */\n      swap2\n      swap1\n      pop\n      jump\t// out\n        /* \"#utility.yul\":8452:8871   */\n    tag_35:\n        /* \"#utility.yul\":8618:8622   */\n      0x00\n        /* \"#utility.yul\":8656:8658   */\n      0x20\n        /* \"#utility.yul\":8645:8654   */\n      dup3\n        /* \"#utility.yul\":8641:8659   */\n      add\n        /* \"#utility.yul\":8633:8659   */\n      swap1\n      pop\n        /* \"#utility.yul\":8705:8714   */\n      dup2\n        /* \"#utility.yul\":8699:8703   */\n      dup2\n        /* \"#utility.yul\":8695:8715   */\n      sub\n        /* \"#utility.yul\":8691:8692   */\n      0x00\n        /* \"#utility.yul\":8680:8689   */\n      dup4\n        /* \"#utility.yul\":8676:8693   */\n      add\n        /* \"#utility.yul\":8669:8716   */\n      mstore\n        /* \"#utility.yul\":8733:8864   */\n      tag_165\n        /* \"#utility.yul\":8859:8863   */\n      dup2\n        /* \"#utility.yul\":8733:8864   */\n      tag_77\n      jump\t// in\n    tag_165:\n        /* \"#utility.yul\":8725:8864   */\n      swap1\n      pop\n        /* \"#utility.yul\":8452:8871   */\n      swap2\n      swap1\n      pop\n      jump\t// out\n        /* \"#utility.yul\":8877:9209   */\n    tag_38:\n        /* \"#utility.yul\":8998:9002   */\n      0x00\n        /* \"#utility.yul\":9036:9038   */\n      0x40\n        /* \"#utility.yul\":9025:9034   */\n      dup3\n        /* \"#utility.yul\":9021:9039   */\n      add\n        /* \"#utility.yul\":9013:9039   */\n      swap1\n      pop\n        /* \"#utility.yul\":9049:9120   */\n      tag_167\n        /* \"#utility.yul\":9117:9118   */\n      0x00\n        /* \"#utility.yul\":9106:9115   */\n      dup4\n        /* \"#utility.yul\":9102:9119   */\n      add\n        /* \"#utility.yul\":9093:9099   */\n      dup6\n        /* \"#utility.yul\":9049:9120   */\n      tag_67\n      jump\t// in\n    tag_167:\n        /* \"#utility.yul\":9130:9202   */\n      tag_168\n        /* \"#utility.yul\":9198:9200   */\n      0x20\n        /* \"#utility.yul\":9187:9196   */\n      dup4\n        /* \"#utility.yul\":9183:9201   */\n      add\n        /* \"#utility.yul\":9174:9180   */\n      dup5\n        /* \"#utility.yul\":9130:9202   */\n      tag_59\n      jump\t// in\n    tag_168:\n        /* \"#utility.yul\":8877:9209   */\n      swap4\n      swap3\n      pop\n      pop\n      pop\n      jump\t// out\n        /* \"#utility.yul\":9215:9445   */\n    tag_78:\n        /* \"#utility.yul\":9355:9389   */\n      0x5472616e7366657248656c7065723a3a73616665417070726f76653a20617070\n        /* \"#utility.yul\":9351:9352   */\n      0x00\n        /* \"#utility.yul\":9343:9349   */\n      dup3\n        /* \"#utility.yul\":9339:9353   */\n      add\n        /* \"#utility.yul\":9332:9390   */\n      mstore\n        /* \"#utility.yul\":9424:9437   */\n      0x726f7665206661696c6564000000000000000000000000000000000000000000\n        /* \"#utility.yul\":9419:9421   */\n      0x20\n        /* \"#utility.yul\":9411:9417   */\n      dup3\n        /* \"#utility.yul\":9407:9422   */\n      add\n        /* \"#utility.yul\":9400:9438   */\n      mstore\n        /* \"#utility.yul\":9215:9445   */\n      pop\n      jump\t// out\n        /* \"#utility.yul\":9451:9817   */\n    tag_79:\n        /* \"#utility.yul\":9593:9596   */\n      0x00\n        /* \"#utility.yul\":9614:9681   */\n      tag_171\n        /* \"#utility.yul\":9678:9680   */\n      0x2b\n        /* \"#utility.yul\":9673:9676   */\n      dup4\n        /* \"#utility.yul\":9614:9681   */\n      tag_75\n      jump\t// in\n    tag_171:\n        /* \"#utility.yul\":9607:9681   */\n      swap2\n      pop\n        /* \"#utility.yul\":9690:9783   */\n      tag_172\n        /* \"#utility.yul\":9779:9782   */\n      dup3\n        /* \"#utility.yul\":9690:9783   */\n      tag_78\n      jump\t// in\n    tag_172:\n        /* \"#utility.yul\":9808:9810   */\n      0x40\n        /* \"#utility.yul\":9803:9806   */\n      dup3\n        /* \"#utility.yul\":9799:9811   */\n      add\n        /* \"#utility.yul\":9792:9811   */\n      swap1\n      pop\n        /* \"#utility.yul\":9451:9817   */\n      swap2\n      swap1\n      pop\n      jump\t// out\n        /* \"#utility.yul\":9823:10242   */\n    tag_48:\n        /* \"#utility.yul\":9989:9993   */\n      0x00\n        /* \"#utility.yul\":10027:10029   */\n      0x20\n        /* \"#utility.yul\":10016:10025   */\n      dup3\n        /* \"#utility.yul\":10012:10030   */\n      add\n        /* \"#utility.yul\":10004:10030   */\n      swap1\n      pop\n        /* \"#utility.yul\":10076:10085   */\n      dup2\n        /* \"#utility.yul\":10070:10074   */\n      dup2\n        /* \"#utility.yul\":10066:10086   */\n      sub\n        /* \"#utility.yul\":10062:10063   */\n      0x00\n        /* \"#utility.yul\":10051:10060   */\n      dup4\n        /* \"#utility.yul\":10047:10064   */\n      add\n        /* \"#utility.yul\":10040:10087   */\n      mstore\n        /* \"#utility.yul\":10104:10235   */\n      tag_174\n        /* \"#utility.yul\":10230:10234   */\n      dup2\n        /* \"#utility.yul\":10104:10235   */\n      tag_79\n      jump\t// in\n    tag_174:\n        /* \"#utility.yul\":10096:10235   */\n      swap1\n      pop\n        /* \"#utility.yul\":9823:10242   */\n      swap2\n      swap1\n      pop\n      jump\t// out\n\n    auxdata: 0xa264697066735822122078bc2d7b8af84d7adff942df37fea2b8d019088f10ecceb8541738b694098df564736f6c63430008190033\n}\n",
				"bytecode": {
					"linkReferences": {},
					"object": "6080604052348015600e575f80fd5b506108d88061001c5f395ff3fe608060405234801561000f575f80fd5b5060043610610029575f3560e01c8063212eaf841461002d575b5f80fd5b61004760048036038101906100429190610489565b61005d565b60405161005491906104fc565b60405180910390f35b5f8084905061006e84333089610195565b6100798482886102c8565b5f6040518060e001604052808673ffffffffffffffffffffffffffffffffffffffff1681526020018573ffffffffffffffffffffffffffffffffffffffff168152602001610bb862ffffff1681526020013073ffffffffffffffffffffffffffffffffffffffff1681526020018881526020015f81526020015f73ffffffffffffffffffffffffffffffffffffffff1681525090505f8273ffffffffffffffffffffffffffffffffffffffff166304e45aaf836040518263ffffffff1660e01b815260040161014891906105eb565b6020604051808303815f875af1158015610164573d5f803e3d5ffd5b505050506040513d601f19601f820116820180604052508101906101889190610618565b9050505050949350505050565b5f808573ffffffffffffffffffffffffffffffffffffffff166323b872dd8686866040516024016101c893929190610652565b6040516020818303038152906040529060e01b6020820180517bffffffffffffffffffffffffffffffffffffffffffffffffffffffff838183161783525050505060405161021691906106d9565b5f604051808303815f865af19150503d805f811461024f576040519150601f19603f3d011682016040523d82523d5f602084013e610254565b606091505b509150915081801561028157505f8151148061028057508080602001905181019061027f9190610724565b5b5b6102c0576040517f08c379a00000000000000000000000000000000000000000000000000000000081526004016102b7906107cf565b60405180910390fd5b505050505050565b5f808473ffffffffffffffffffffffffffffffffffffffff1663095ea7b385856040516024016102f99291906107ed565b6040516020818303038152906040529060e01b6020820180517bffffffffffffffffffffffffffffffffffffffffffffffffffffffff838183161783525050505060405161034791906106d9565b5f604051808303815f865af19150503d805f8114610380576040519150601f19603f3d011682016040523d82523d5f602084013e610385565b606091505b50915091508180156103b257505f815114806103b15750808060200190518101906103b09190610724565b5b5b6103f1576040517f08c379a00000000000000000000000000000000000000000000000000000000081526004016103e890610884565b60405180910390fd5b5050505050565b5f80fd5b5f819050919050565b61040e816103fc565b8114610418575f80fd5b50565b5f8135905061042981610405565b92915050565b5f73ffffffffffffffffffffffffffffffffffffffff82169050919050565b5f6104588261042f565b9050919050565b6104688161044e565b8114610472575f80fd5b50565b5f813590506104838161045f565b92915050565b5f805f80608085870312156104a1576104a06103f8565b5b5f6104ae8782880161041b565b94505060206104bf87828801610475565b93505060406104d087828801610475565b92505060606104e187828801610475565b91505092959194509250565b6104f6816103fc565b82525050565b5f60208201905061050f5f8301846104ed565b92915050565b61051e8161044e565b82525050565b5f62ffffff82169050919050565b61053b81610524565b82525050565b61054a816103fc565b82525050565b6105598161042f565b82525050565b60e082015f8201516105735f850182610515565b5060208201516105866020850182610515565b5060408201516105996040850182610532565b5060608201516105ac6060850182610515565b5060808201516105bf6080850182610541565b5060a08201516105d260a0850182610541565b5060c08201516105e560c0850182610550565b50505050565b5f60e0820190506105fe5f83018461055f565b92915050565b5f8151905061061281610405565b92915050565b5f6020828403121561062d5761062c6103f8565b5b5f61063a84828501610604565b91505092915050565b61064c8161044e565b82525050565b5f6060820190506106655f830186610643565b6106726020830185610643565b61067f60408301846104ed565b949350505050565b5f81519050919050565b5f81905092915050565b8281835e5f83830152505050565b5f6106b382610687565b6106bd8185610691565b93506106cd81856020860161069b565b80840191505092915050565b5f6106e482846106a9565b915081905092915050565b5f8115159050919050565b610703816106ef565b811461070d575f80fd5b50565b5f8151905061071e816106fa565b92915050565b5f60208284031215610739576107386103f8565b5b5f61074684828501610710565b91505092915050565b5f82825260208201905092915050565b7f5472616e7366657248656c7065723a3a7472616e7366657246726f6d3a2074725f8201527f616e7366657246726f6d206661696c6564000000000000000000000000000000602082015250565b5f6107b960318361074f565b91506107c48261075f565b604082019050919050565b5f6020820190508181035f8301526107e6816107ad565b9050919050565b5f6040820190506108005f830185610643565b61080d60208301846104ed565b9392505050565b7f5472616e7366657248656c7065723a3a73616665417070726f76653a206170705f8201527f726f7665206661696c6564000000000000000000000000000000000000000000602082015250565b5f61086e602b8361074f565b915061087982610814565b604082019050919050565b5f6020820190508181035f83015261089b81610862565b905091905056fea264697066735822122078bc2d7b8af84d7adff942df37fea2b8d019088f10ecceb8541738b694098df564736f6c63430008190033",
					"opcodes": "PUSH1 0x80 PUSH1 0x40 MSTORE CALLVALUE DUP1 ISZERO PUSH1 0xE JUMPI PUSH0 DUP1 REVERT JUMPDEST POP PUSH2 0x8D8 DUP1 PUSH2 0x1C PUSH0 CODECOPY PUSH0 RETURN INVALID PUSH1 0x80 PUSH1 0x40 MSTORE CALLVALUE DUP1 ISZERO PUSH2 0xF JUMPI PUSH0 DUP1 REVERT JUMPDEST POP PUSH1 0x4 CALLDATASIZE LT PUSH2 0x29 JUMPI PUSH0 CALLDATALOAD PUSH1 0xE0 SHR DUP1 PUSH4 0x212EAF84 EQ PUSH2 0x2D JUMPI JUMPDEST PUSH0 DUP1 REVERT JUMPDEST PUSH2 0x47 PUSH1 0x4 DUP1 CALLDATASIZE SUB DUP2 ADD SWAP1 PUSH2 0x42 SWAP2 SWAP1 PUSH2 0x489 JUMP JUMPDEST PUSH2 0x5D JUMP JUMPDEST PUSH1 0x40 MLOAD PUSH2 0x54 SWAP2 SWAP1 PUSH2 0x4FC JUMP JUMPDEST PUSH1 0x40 MLOAD DUP1 SWAP2 SUB SWAP1 RETURN JUMPDEST PUSH0 DUP1 DUP5 SWAP1 POP PUSH2 0x6E DUP5 CALLER ADDRESS DUP10 PUSH2 0x195 JUMP JUMPDEST PUSH2 0x79 DUP5 DUP3 DUP9 PUSH2 0x2C8 JUMP JUMPDEST PUSH0 PUSH1 0x40 MLOAD DUP1 PUSH1 0xE0 ADD PUSH1 0x40 MSTORE DUP1 DUP7 PUSH20 0xFFFFFFFFFFFFFFFFFFFFFFFFFFFFFFFFFFFFFFFF AND DUP2 MSTORE PUSH1 0x20 ADD DUP6 PUSH20 0xFFFFFFFFFFFFFFFFFFFFFFFFFFFFFFFFFFFFFFFF AND DUP2 MSTORE PUSH1 0x20 ADD PUSH2 0xBB8 PUSH3 0xFFFFFF AND DUP2 MSTORE PUSH1 0x20 ADD ADDRESS PUSH20 0xFFFFFFFFFFFFFFFFFFFFFFFFFFFFFFFFFFFFFFFF AND DUP2 MSTORE PUSH1 0x20 ADD DUP9 DUP2 MSTORE PUSH1 0x20 ADD PUSH0 DUP2 MSTORE PUSH1 0x20 ADD PUSH0 PUSH20 0xFFFFFFFFFFFFFFFFFFFFFFFFFFFFFFFFFFFFFFFF AND DUP2 MSTORE POP SWAP1 POP PUSH0 DUP3 PUSH20 0xFFFFFFFFFFFFFFFFFFFFFFFFFFFFFFFFFFFFFFFF AND PUSH4 0x4E45AAF DUP4 PUSH1 0x40 MLOAD DUP3 PUSH4 0xFFFFFFFF AND PUSH1 0xE0 SHL DUP2 MSTORE PUSH1 0x4 ADD PUSH2 0x148 SWAP2 SWAP1 PUSH2 0x5EB JUMP JUMPDEST PUSH1 0x20 PUSH1 0x40 MLOAD DUP1 DUP4 SUB DUP2 PUSH0 DUP8 GAS CALL ISZERO DUP1 ISZERO PUSH2 0x164 JUMPI RETURNDATASIZE PUSH0 DUP1 RETURNDATACOPY RETURNDATASIZE PUSH0 REVERT JUMPDEST POP POP POP POP PUSH1 0x40 MLOAD RETURNDATASIZE PUSH1 0x1F NOT PUSH1 0x1F DUP3 ADD AND DUP3 ADD DUP1 PUSH1 0x40 MSTORE POP DUP2 ADD SWAP1 PUSH2 0x188 SWAP2 SWAP1 PUSH2 0x618 JUMP JUMPDEST SWAP1 POP POP POP POP SWAP5 SWAP4 POP POP POP POP JUMP JUMPDEST PUSH0 DUP1 DUP6 PUSH20 0xFFFFFFFFFFFFFFFFFFFFFFFFFFFFFFFFFFFFFFFF AND PUSH4 0x23B872DD DUP7 DUP7 DUP7 PUSH1 0x40 MLOAD PUSH1 0x24 ADD PUSH2 0x1C8 SWAP4 SWAP3 SWAP2 SWAP1 PUSH2 0x652 JUMP JUMPDEST PUSH1 0x40 MLOAD PUSH1 0x20 DUP2 DUP4 SUB SUB DUP2 MSTORE SWAP1 PUSH1 0x40 MSTORE SWAP1 PUSH1 0xE0 SHL PUSH1 0x20 DUP3 ADD DUP1 MLOAD PUSH28 0xFFFFFFFFFFFFFFFFFFFFFFFFFFFFFFFFFFFFFFFFFFFFFFFFFFFFFFFF DUP4 DUP2 DUP4 AND OR DUP4 MSTORE POP POP POP POP PUSH1 0x40 MLOAD PUSH2 0x216 SWAP2 SWAP1 PUSH2 0x6D9 JUMP JUMPDEST PUSH0 PUSH1 0x40 MLOAD DUP1 DUP4 SUB DUP2 PUSH0 DUP7 GAS CALL SWAP2 POP POP RETURNDATASIZE DUP1 PUSH0 DUP2 EQ PUSH2 0x24F JUMPI PUSH1 0x40 MLOAD SWAP2 POP PUSH1 0x1F NOT PUSH1 0x3F RETURNDATASIZE ADD AND DUP3 ADD PUSH1 0x40 MSTORE RETURNDATASIZE DUP3 MSTORE RETURNDATASIZE PUSH0 PUSH1 0x20 DUP5 ADD RETURNDATACOPY PUSH2 0x254 JUMP JUMPDEST PUSH1 0x60 SWAP2 POP JUMPDEST POP SWAP2 POP SWAP2 POP DUP2 DUP1 ISZERO PUSH2 0x281 JUMPI POP PUSH0 DUP2 MLOAD EQ DUP1 PUSH2 0x280 JUMPI POP DUP1 DUP1 PUSH1 0x20 ADD SWAP1 MLOAD DUP2 ADD SWAP1 PUSH2 0x27F SWAP2 SWAP1 PUSH2 0x724 JUMP JUMPDEST JUMPDEST JUMPDEST PUSH2 0x2C0 JUMPI PUSH1 0x40 MLOAD PUSH32 0x8C379A000000000000000000000000000000000000000000000000000000000 DUP2 MSTORE PUSH1 0x4 ADD PUSH2 0x2B7 SWAP1 PUSH2 0x7CF JUMP JUMPDEST PUSH1 0x40 MLOAD DUP1 SWAP2 SUB SWAP1 REVERT JUMPDEST POP POP POP POP POP POP JUMP JUMPDEST PUSH0 DUP1 DUP5 PUSH20 0xFFFFFFFFFFFFFFFFFFFFFFFFFFFFFFFFFFFFFFFF AND PUSH4 0x95EA7B3 DUP6 DUP6 PUSH1 0x40 MLOAD PUSH1 0x24 ADD PUSH2 0x2F9 SWAP3 SWAP2 SWAP1 PUSH2 0x7ED JUMP JUMPDEST PUSH1 0x40 MLOAD PUSH1 0x20 DUP2 DUP4 SUB SUB DUP2 MSTORE SWAP1 PUSH1 0x40 MSTORE SWAP1 PUSH1 0xE0 SHL PUSH1 0x20 DUP3 ADD DUP1 MLOAD PUSH28 0xFFFFFFFFFFFFFFFFFFFFFFFFFFFFFFFFFFFFFFFFFFFFFFFFFFFFFFFF DUP4 DUP2 DUP4 AND OR DUP4 MSTORE POP POP POP POP PUSH1 0x40 MLOAD PUSH2 0x347 SWAP2 SWAP1 PUSH2 0x6D9 JUMP JUMPDEST PUSH0 PUSH1 0x40 MLOAD DUP1 DUP4 SUB DUP2 PUSH0 DUP7 GAS CALL SWAP2 POP POP RETURNDATASIZE DUP1 PUSH0 DUP2 EQ PUSH2 0x380 JUMPI PUSH1 0x40 MLOAD SWAP2 POP PUSH1 0x1F NOT PUSH1 0x3F RETURNDATASIZE ADD AND DUP3 ADD PUSH1 0x40 MSTORE RETURNDATASIZE DUP3 MSTORE RETURNDATASIZE PUSH0 PUSH1 0x20 DUP5 ADD RETURNDATACOPY PUSH2 0x385 JUMP JUMPDEST PUSH1 0x60 SWAP2 POP JUMPDEST POP SWAP2 POP SWAP2 POP DUP2 DUP1 ISZERO PUSH2 0x3B2 JUMPI POP PUSH0 DUP2 MLOAD EQ DUP1 PUSH2 0x3B1 JUMPI POP DUP1 DUP1 PUSH1 0x20 ADD SWAP1 MLOAD DUP2 ADD SWAP1 PUSH2 0x3B0 SWAP2 SWAP1 PUSH2 0x724 JUMP JUMPDEST JUMPDEST JUMPDEST PUSH2 0x3F1 JUMPI PUSH1 0x40 MLOAD PUSH32 0x8C379A000000000000000000000000000000000000000000000000000000000 DUP2 MSTORE PUSH1 0x4 ADD PUSH2 0x3E8 SWAP1 PUSH2 0x884 JUMP JUMPDEST PUSH1 0x40 MLOAD DUP1 SWAP2 SUB SWAP1 REVERT JUMPDEST POP POP POP POP POP JUMP JUMPDEST PUSH0 DUP1 REVERT JUMPDEST PUSH0 DUP2 SWAP1 POP SWAP2 SWAP1 POP JUMP JUMPDEST PUSH2 0x40E DUP2 PUSH2 0x3FC JUMP JUMPDEST DUP2 EQ PUSH2 0x418 JUMPI PUSH0 DUP1 REVERT JUMPDEST POP JUMP JUMPDEST PUSH0 DUP2 CALLDATALOAD SWAP1 POP PUSH2 0x429 DUP2 PUSH2 0x405 JUMP JUMPDEST SWAP3 SWAP2 POP POP JUMP JUMPDEST PUSH0 PUSH20 0xFFFFFFFFFFFFFFFFFFFFFFFFFFFFFFFFFFFFFFFF DUP3 AND SWAP1 POP SWAP2 SWAP1 POP JUMP JUMPDEST PUSH0 PUSH2 0x458 DUP3 PUSH2 0x42F JUMP JUMPDEST SWAP1 POP SWAP2 SWAP1 POP JUMP JUMPDEST PUSH2 0x468 DUP2 PUSH2 0x44E JUMP JUMPDEST DUP2 EQ PUSH2 0x472 JUMPI PUSH0 DUP1 REVERT JUMPDEST POP JUMP JUMPDEST PUSH0 DUP2 CALLDATALOAD SWAP1 POP PUSH2 0x483 DUP2 PUSH2 0x45F JUMP JUMPDEST SWAP3 SWAP2 POP POP JUMP JUMPDEST PUSH0 DUP1 PUSH0 DUP1 PUSH1 0x80 DUP6 DUP8 SUB SLT ISZERO PUSH2 0x4A1 JUMPI PUSH2 0x4A0 PUSH2 0x3F8 JUMP JUMPDEST JUMPDEST PUSH0 PUSH2 0x4AE DUP8 DUP3 DUP9 ADD PUSH2 0x41B JUMP JUMPDEST SWAP5 POP POP PUSH1 0x20 PUSH2 0x4BF DUP8 DUP3 DUP9 ADD PUSH2 0x475 JUMP JUMPDEST SWAP4 POP POP PUSH1 0x40 PUSH2 0x4D0 DUP8 DUP3 DUP9 ADD PUSH2 0x475 JUMP JUMPDEST SWAP3 POP POP PUSH1 0x60 PUSH2 0x4E1 DUP8 DUP3 DUP9 ADD PUSH2 0x475 JUMP JUMPDEST SWAP2 POP POP SWAP3 SWAP6 SWAP2 SWAP5 POP SWAP3 POP JUMP JUMPDEST PUSH2 0x4F6 DUP2 PUSH2 0x3FC JUMP JUMPDEST DUP3 MSTORE POP POP JUMP JUMPDEST PUSH0 PUSH1 0x20 DUP3 ADD SWAP1 POP PUSH2 0x50F PUSH0 DUP4 ADD DUP5 PUSH2 0x4ED JUMP JUMPDEST SWAP3 SWAP2 POP POP JUMP JUMPDEST PUSH2 0x51E DUP2 PUSH2 0x44E JUMP JUMPDEST DUP3 MSTORE POP POP JUMP JUMPDEST PUSH0 PUSH3 0xFFFFFF DUP3 AND SWAP1 POP SWAP2 SWAP1 POP JUMP JUMPDEST PUSH2 0x53B DUP2 PUSH2 0x524 JUMP JUMPDEST DUP3 MSTORE POP POP JUMP JUMPDEST PUSH2 0x54A DUP2 PUSH2 0x3FC JUMP JUMPDEST DUP3 MSTORE POP POP JUMP JUMPDEST PUSH2 0x559 DUP2 PUSH2 0x42F JUMP JUMPDEST DUP3 MSTORE POP POP JUMP JUMPDEST PUSH1 0xE0 DUP3 ADD PUSH0 DUP3 ADD MLOAD PUSH2 0x573 PUSH0 DUP6 ADD DUP3 PUSH2 0x515 JUMP JUMPDEST POP PUSH1 0x20 DUP3 ADD MLOAD PUSH2 0x586 PUSH1 0x20 DUP6 ADD DUP3 PUSH2 0x515 JUMP JUMPDEST POP PUSH1 0x40 DUP3 ADD MLOAD PUSH2 0x599 PUSH1 0x40 DUP6 ADD DUP3 PUSH2 0x532 JUMP JUMPDEST POP PUSH1 0x60 DUP3 ADD MLOAD PUSH2 0x5AC PUSH1 0x60 DUP6 ADD DUP3 PUSH2 0x515 JUMP JUMPDEST POP PUSH1 0x80 DUP3 ADD MLOAD PUSH2 0x5BF PUSH1 0x80 DUP6 ADD DUP3 PUSH2 0x541 JUMP JUMPDEST POP PUSH1 0xA0 DUP3 ADD MLOAD PUSH2 0x5D2 PUSH1 0xA0 DUP6 ADD DUP3 PUSH2 0x541 JUMP JUMPDEST POP PUSH1 0xC0 DUP3 ADD MLOAD PUSH2 0x5E5 PUSH1 0xC0 DUP6 ADD DUP3 PUSH2 0x550 JUMP JUMPDEST POP POP POP POP JUMP JUMPDEST PUSH0 PUSH1 0xE0 DUP3 ADD SWAP1 POP PUSH2 0x5FE PUSH0 DUP4 ADD DUP5 PUSH2 0x55F JUMP JUMPDEST SWAP3 SWAP2 POP POP JUMP JUMPDEST PUSH0 DUP2 MLOAD SWAP1 POP PUSH2 0x612 DUP2 PUSH2 0x405 JUMP JUMPDEST SWAP3 SWAP2 POP POP JUMP JUMPDEST PUSH0 PUSH1 0x20 DUP3 DUP5 SUB SLT ISZERO PUSH2 0x62D JUMPI PUSH2 0x62C PUSH2 0x3F8 JUMP JUMPDEST JUMPDEST PUSH0 PUSH2 0x63A DUP5 DUP3 DUP6 ADD PUSH2 0x604 JUMP JUMPDEST SWAP2 POP POP SWAP3 SWAP2 POP POP JUMP JUMPDEST PUSH2 0x64C DUP2 PUSH2 0x44E JUMP JUMPDEST DUP3 MSTORE POP POP JUMP JUMPDEST PUSH0 PUSH1 0x60 DUP3 ADD SWAP1 POP PUSH2 0x665 PUSH0 DUP4 ADD DUP7 PUSH2 0x643 JUMP JUMPDEST PUSH2 0x672 PUSH1 0x20 DUP4 ADD DUP6 PUSH2 0x643 JUMP JUMPDEST PUSH2 0x67F PUSH1 0x40 DUP4 ADD DUP5 PUSH2 0x4ED JUMP JUMPDEST SWAP5 SWAP4 POP POP POP POP JUMP JUMPDEST PUSH0 DUP2 MLOAD SWAP1 POP SWAP2 SWAP1 POP JUMP JUMPDEST PUSH0 DUP2 SWAP1 POP SWAP3 SWAP2 POP POP JUMP JUMPDEST DUP3 DUP2 DUP4 MCOPY PUSH0 DUP4 DUP4 ADD MSTORE POP POP POP JUMP JUMPDEST PUSH0 PUSH2 0x6B3 DUP3 PUSH2 0x687 JUMP JUMPDEST PUSH2 0x6BD DUP2 DUP6 PUSH2 0x691 JUMP JUMPDEST SWAP4 POP PUSH2 0x6CD DUP2 DUP6 PUSH1 0x20 DUP7 ADD PUSH2 0x69B JUMP JUMPDEST DUP1 DUP5 ADD SWAP2 POP POP SWAP3 SWAP2 POP POP JUMP JUMPDEST PUSH0 PUSH2 0x6E4 DUP3 DUP5 PUSH2 0x6A9 JUMP JUMPDEST SWAP2 POP DUP2 SWAP1 POP SWAP3 SWAP2 POP POP JUMP JUMPDEST PUSH0 DUP2 ISZERO ISZERO SWAP1 POP SWAP2 SWAP1 POP JUMP JUMPDEST PUSH2 0x703 DUP2 PUSH2 0x6EF JUMP JUMPDEST DUP2 EQ PUSH2 0x70D JUMPI PUSH0 DUP1 REVERT JUMPDEST POP JUMP JUMPDEST PUSH0 DUP2 MLOAD SWAP1 POP PUSH2 0x71E DUP2 PUSH2 0x6FA JUMP JUMPDEST SWAP3 SWAP2 POP POP JUMP JUMPDEST PUSH0 PUSH1 0x20 DUP3 DUP5 SUB SLT ISZERO PUSH2 0x739 JUMPI PUSH2 0x738 PUSH2 0x3F8 JUMP JUMPDEST JUMPDEST PUSH0 PUSH2 0x746 DUP5 DUP3 DUP6 ADD PUSH2 0x710 JUMP JUMPDEST SWAP2 POP POP SWAP3 SWAP2 POP POP JUMP JUMPDEST PUSH0 DUP3 DUP3 MSTORE PUSH1 0x20 DUP3 ADD SWAP1 POP SWAP3 SWAP2 POP POP JUMP JUMPDEST PUSH32 0x5472616E7366657248656C7065723A3A7472616E7366657246726F6D3A207472 PUSH0 DUP3 ADD MSTORE PUSH32 0x616E7366657246726F6D206661696C6564000000000000000000000000000000 PUSH1 0x20 DUP3 ADD MSTORE POP JUMP JUMPDEST PUSH0 PUSH2 0x7B9 PUSH1 0x31 DUP4 PUSH2 0x74F JUMP JUMPDEST SWAP2 POP PUSH2 0x7C4 DUP3 PUSH2 0x75F JUMP JUMPDEST PUSH1 0x40 DUP3 ADD SWAP1 POP SWAP2 SWAP1 POP JUMP JUMPDEST PUSH0 PUSH1 0x20 DUP3 ADD SWAP1 POP DUP2 DUP2 SUB PUSH0 DUP4 ADD MSTORE PUSH2 0x7E6 DUP2 PUSH2 0x7AD JUMP JUMPDEST SWAP1 POP SWAP2 SWAP1 POP JUMP JUMPDEST PUSH0 PUSH1 0x40 DUP3 ADD SWAP1 POP PUSH2 0x800 PUSH0 DUP4 ADD DUP6 PUSH2 0x643 JUMP JUMPDEST PUSH2 0x80D PUSH1 0x20 DUP4 ADD DUP5 PUSH2 0x4ED JUMP JUMPDEST SWAP4 SWAP3 POP POP POP JUMP JUMPDEST PUSH32 0x5472616E7366657248656C7065723A3A73616665417070726F76653A20617070 PUSH0 DUP3 ADD MSTORE PUSH32 0x726F7665206661696C6564000000000000000000000000000000000000000000 PUSH1 0x20 DUP3 ADD MSTORE POP JUMP JUMPDEST PUSH0 PUSH2 0x86E PUSH1 0x2B DUP4 PUSH2 0x74F JUMP JUMPDEST SWAP2 POP PUSH2 0x879 DUP3 PUSH2 0x814 JUMP JUMPDEST PUSH1 0x40 DUP3 ADD SWAP1 POP SWAP2 SWAP1 POP JUMP JUMPDEST PUSH0 PUSH1 0x20 DUP3 ADD SWAP1 POP DUP2 DUP2 SUB PUSH0 DUP4 ADD MSTORE PUSH2 0x89B DUP2 PUSH2 0x862 JUMP JUMPDEST SWAP1 POP SWAP2 SWAP1 POP JUMP INVALID LOG2 PUSH5 0x6970667358 0x22 SLT KECCAK256 PUSH25 0xBC2D7B8AF84D7ADFF942DF37FEA2B8D019088F10ECCEB85417 CODESIZE 0xB6 SWAP5 MULMOD DUP14 CREATE2 PUSH5 0x736F6C6343 STOP ADDMOD NOT STOP CALLER "
				},
				"gasEstimates": {
					"creation": {
						"codeDepositCost": "452800",
						"executionCost": "484",
						"totalCost": "453284"
					},
					"external": {
						"doArbitrage(uint256,address,address,address)": "infinite"
					}
				},
				"methodIdentifiers": {
					"doArbitrage(uint256,address,address,address)": "212eaf84"
				}
			},
			"storageLayout": {
				"storage": [],
				"types": null
			},
			"userdoc": {
				"kind": "user",
				"methods": {},
				"version": 1
			}
		}
	}
}