{
	"data": {
		"bytecode": {
			"linkReferences": {},
			"object": "60a0604052733bfa4769fb09eefc5a80d6e87c3b9c650f7ae48e73ffffffffffffffffffffffffffffffffffffffff1660809073ffffffffffffffffffffffffffffffffffffffff168152503480156055575f80fd5b50608051610bd06100895f395f818160ea015281816101cf015281816102820152818161038601526104290152610bd05ff3fe608060405234801561000f575f80fd5b506004361061003f575f3560e01c8063a048600d14610043578063c31c9c0714610073578063f8bb916014610091575b5f80fd5b61005d600480360381019061005891906106fd565b6100af565b60405161006a9190610737565b60405180910390f35b61007b610427565b60405161008891906107ca565b60405180910390f35b61009961044b565b6040516100a69190610803565b60405180910390f35b5f6100d073d28627157e141fe80320b6022e9345a882bc71bf333085610463565b61010f73d28627157e141fe80320b6022e9345a882bc71bf7f000000000000000000000000000000000000000000000000000000000000000084610596565b5f6040518060e0016040528073d28627157e141fe80320b6022e9345a882bc71bf73ffffffffffffffffffffffffffffffffffffffff16815260200173e0ca845dc9cb425970f9d4f88771de30058322b073ffffffffffffffffffffffffffffffffffffffff1681526020016101f462ffffff1681526020013073ffffffffffffffffffffffffffffffffffffffff1681526020018481526020015f81526020015f73ffffffffffffffffffffffffffffffffffffffff1681525090505f7f000000000000000000000000000000000000000000000000000000000000000073ffffffffffffffffffffffffffffffffffffffff166304e45aaf836040518263ffffffff1660e01b815260040161022691906108f2565b6020604051808303815f875af1158015610242573d5f803e3d5ffd5b505050506040513d601f19601f82011682018060405250810190610266919061091f565b90506102c773e0ca845dc9cb425970f9d4f88771de30058322b07f00000000000000000000000000000000000000000000000000000000000000007fffffffffffffffffffffffffffffffffffffffffffffffffffffffffffffffff610596565b5f6040518060e0016040528073e0ca845dc9cb425970f9d4f88771de30058322b073ffffffffffffffffffffffffffffffffffffffff16815260200173d28627157e141fe80320b6022e9345a882bc71bf73ffffffffffffffffffffffffffffffffffffffff1681526020016101f462ffffff1681526020013373ffffffffffffffffffffffffffffffffffffffff1681526020018381526020015f81526020015f73ffffffffffffffffffffffffffffffffffffffff1681525090507f000000000000000000000000000000000000000000000000000000000000000073ffffffffffffffffffffffffffffffffffffffff166304e45aaf826040518263ffffffff1660e01b81526004016103dd91906108f2565b6020604051808303815f875af11580156103f9573d5f803e3d5ffd5b505050506040513d601f19601f8201168201806040525081019061041d919061091f565b9350505050919050565b7f000000000000000000000000000000000000000000000000000000000000000081565b73e0ca845dc9cb425970f9d4f88771de30058322b081565b5f808573ffffffffffffffffffffffffffffffffffffffff166323b872dd8686866040516024016104969392919061094a565b6040516020818303038152906040529060e01b6020820180517bffffffffffffffffffffffffffffffffffffffffffffffffffffffff83818316178352505050506040516104e491906109d1565b5f604051808303815f865af19150503d805f811461051d576040519150601f19603f3d011682016040523d82523d5f602084013e610522565b606091505b509150915081801561054f57505f8151148061054e57508080602001905181019061054d9190610a1c565b5b5b61058e576040517f08c379a000000000000000000000000000000000000000000000000000000000815260040161058590610ac7565b60405180910390fd5b505050505050565b5f808473ffffffffffffffffffffffffffffffffffffffff1663095ea7b385856040516024016105c7929190610ae5565b6040516020818303038152906040529060e01b6020820180517bffffffffffffffffffffffffffffffffffffffffffffffffffffffff838183161783525050505060405161061591906109d1565b5f604051808303815f865af19150503d805f811461064e576040519150601f19603f3d011682016040523d82523d5f602084013e610653565b606091505b509150915081801561068057505f8151148061067f57508080602001905181019061067e9190610a1c565b5b5b6106bf576040517f08c379a00000000000000000000000000000000000000000000000000000000081526004016106b690610b7c565b60405180910390fd5b5050505050565b5f80fd5b5f819050919050565b6106dc816106ca565b81146106e6575f80fd5b50565b5f813590506106f7816106d3565b92915050565b5f60208284031215610712576107116106c6565b5b5f61071f848285016106e9565b91505092915050565b610731816106ca565b82525050565b5f60208201905061074a5f830184610728565b92915050565b5f73ffffffffffffffffffffffffffffffffffffffff82169050919050565b5f819050919050565b5f61079261078d61078884610750565b61076f565b610750565b9050919050565b5f6107a382610778565b9050919050565b5f6107b482610799565b9050919050565b6107c4816107aa565b82525050565b5f6020820190506107dd5f8301846107bb565b92915050565b5f6107ed82610750565b9050919050565b6107fd816107e3565b82525050565b5f6020820190506108165f8301846107f4565b92915050565b610825816107e3565b82525050565b5f62ffffff82169050919050565b6108428161082b565b82525050565b610851816106ca565b82525050565b61086081610750565b82525050565b60e082015f82015161087a5f85018261081c565b50602082015161088d602085018261081c565b5060408201516108a06040850182610839565b5060608201516108b3606085018261081c565b5060808201516108c66080850182610848565b5060a08201516108d960a0850182610848565b5060c08201516108ec60c0850182610857565b50505050565b5f60e0820190506109055f830184610866565b92915050565b5f81519050610919816106d3565b92915050565b5f60208284031215610934576109336106c6565b5b5f6109418482850161090b565b91505092915050565b5f60608201905061095d5f8301866107f4565b61096a60208301856107f4565b6109776040830184610728565b949350505050565b5f81519050919050565b5f81905092915050565b8281835e5f83830152505050565b5f6109ab8261097f565b6109b58185610989565b93506109c5818560208601610993565b80840191505092915050565b5f6109dc82846109a1565b915081905092915050565b5f8115159050919050565b6109fb816109e7565b8114610a05575f80fd5b50565b5f81519050610a16816109f2565b92915050565b5f60208284031215610a3157610a306106c6565b5b5f610a3e84828501610a08565b91505092915050565b5f82825260208201905092915050565b7f5472616e7366657248656c7065723a3a7472616e7366657246726f6d3a2074725f8201527f616e7366657246726f6d206661696c6564000000000000000000000000000000602082015250565b5f610ab1603183610a47565b9150610abc82610a57565b604082019050919050565b5f6020820190508181035f830152610ade81610aa5565b9050919050565b5f604082019050610af85f8301856107f4565b610b056020830184610728565b9392505050565b7f5472616e7366657248656c7065723a3a73616665417070726f76653a206170705f8201527f726f7665206661696c6564000000000000000000000000000000000000000000602082015250565b5f610b66602b83610a47565b9150610b7182610b0c565b604082019050919050565b5f6020820190508181035f830152610b9381610b5a565b905091905056fea2646970667358221220c86ea7621f364a4de9d406f63a836d9324dcea3ff7a7e81b54c311bb594a9d9664736f6c63430008190033",
			"opcodes": "PUSH1 0xA0 PUSH1 0x40 MSTORE PUSH20 0x3BFA4769FB09EEFC5A80D6E87C3B9C650F7AE48E PUSH20 0xFFFFFFFFFFFFFFFFFFFFFFFFFFFFFFFFFFFFFFFF AND PUSH1 0x80 SWAP1 PUSH20 0xFFFFFFFFFFFFFFFFFFFFFFFFFFFFFFFFFFFFFFFF AND DUP2 MSTORE POP CALLVALUE DUP1 ISZERO PUSH1 0x55 JUMPI PUSH0 DUP1 REVERT JUMPDEST POP PUSH1 0x80 MLOAD PUSH2 0xBD0 PUSH2 0x89 PUSH0 CODECOPY PUSH0 DUP2 DUP2 PUSH1 0xEA ADD MSTORE DUP2 DUP2 PUSH2 0x1CF ADD MSTORE DUP2 DUP2 PUSH2 0x282 ADD MSTORE DUP2 DUP2 PUSH2 0x386 ADD MSTORE PUSH2 0x429 ADD MSTORE PUSH2 0xBD0 PUSH0 RETURN INVALID PUSH1 0x80 PUSH1 0x40 MSTORE CALLVALUE DUP1 ISZERO PUSH2 0xF JUMPI PUSH0 DUP1 REVERT JUMPDEST POP PUSH1 0x4 CALLDATASIZE LT PUSH2 0x3F JUMPI PUSH0 CALLDATALOAD PUSH1 0xE0 SHR DUP1 PUSH4 0xA048600D EQ PUSH2 0x43 JUMPI DUP1 PUSH4 0xC31C9C07 EQ PUSH2 0x73 JUMPI DUP1 PUSH4 0xF8BB9160 EQ PUSH2 0x91 JUMPI JUMPDEST PUSH0 DUP1 REVERT JUMPDEST PUSH2 0x5D PUSH1 0x4 DUP1 CALLDATASIZE SUB DUP2 ADD SWAP1 PUSH2 0x58 SWAP2 SWAP1 PUSH2 0x6FD JUMP JUMPDEST PUSH2 0xAF JUMP JUMPDEST PUSH1 0x40 MLOAD PUSH2 0x6A SWAP2 SWAP1 PUSH2 0x737 JUMP JUMPDEST PUSH1 0x40 MLOAD DUP1 SWAP2 SUB SWAP1 RETURN JUMPDEST PUSH2 0x7B PUSH2 0x427 JUMP JUMPDEST PUSH1 0x40 MLOAD PUSH2 0x88 SWAP2 SWAP1 PUSH2 0x7CA JUMP JUMPDEST PUSH1 0x40 MLOAD DUP1 SWAP2 SUB SWAP1 RETURN JUMPDEST PUSH2 0x99 PUSH2 0x44B JUMP JUMPDEST PUSH1 0x40 MLOAD PUSH2 0xA6 SWAP2 SWAP1 PUSH2 0x803 JUMP JUMPDEST PUSH1 0x40 MLOAD DUP1 SWAP2 SUB SWAP1 RETURN JUMPDEST PUSH0 PUSH2 0xD0 PUSH20 0xD28627157E141FE80320B6022E9345A882BC71BF CALLER ADDRESS DUP6 PUSH2 0x463 JUMP JUMPDEST PUSH2 0x10F PUSH20 0xD28627157E141FE80320B6022E9345A882BC71BF PUSH32 0x0 DUP5 PUSH2 0x596 JUMP JUMPDEST PUSH0 PUSH1 0x40 MLOAD DUP1 PUSH1 0xE0 ADD PUSH1 0x40 MSTORE DUP1 PUSH20 0xD28627157E141FE80320B6022E9345A882BC71BF PUSH20 0xFFFFFFFFFFFFFFFFFFFFFFFFFFFFFFFFFFFFFFFF AND DUP2 MSTORE PUSH1 0x20 ADD PUSH20 0xE0CA845DC9CB425970F9D4F88771DE30058322B0 PUSH20 0xFFFFFFFFFFFFFFFFFFFFFFFFFFFFFFFFFFFFFFFF AND DUP2 MSTORE PUSH1 0x20 ADD PUSH2 0x1F4 PUSH3 0xFFFFFF AND DUP2 MSTORE PUSH1 0x20 ADD ADDRESS PUSH20 0xFFFFFFFFFFFFFFFFFFFFFFFFFFFFFFFFFFFFFFFF AND DUP2 MSTORE PUSH1 0x20 ADD DUP5 DUP2 MSTORE PUSH1 0x20 ADD PUSH0 DUP2 MSTORE PUSH1 0x20 ADD PUSH0 PUSH20 0xFFFFFFFFFFFFFFFFFFFFFFFFFFFFFFFFFFFFFFFF AND DUP2 MSTORE POP SWAP1 POP PUSH0 PUSH32 0x0 PUSH20 0xFFFFFFFFFFFFFFFFFFFFFFFFFFFFFFFFFFFFFFFF AND PUSH4 0x4E45AAF DUP4 PUSH1 0x40 MLOAD DUP3 PUSH4 0xFFFFFFFF AND PUSH1 0xE0 SHL DUP2 MSTORE PUSH1 0x4 ADD PUSH2 0x226 SWAP2 SWAP1 PUSH2 0x8F2 JUMP JUMPDEST PUSH1 0x20 PUSH1 0x40 MLOAD DUP1 DUP4 SUB DUP2 PUSH0 DUP8 GAS CALL ISZERO DUP1 ISZERO PUSH2 0x242 JUMPI RETURNDATASIZE PUSH0 DUP1 RETURNDATACOPY RETURNDATASIZE PUSH0 REVERT JUMPDEST POP POP POP POP PUSH1 0x40 MLOAD RETURNDATASIZE PUSH1 0x1F NOT PUSH1 0x1F DUP3 ADD AND DUP3 ADD DUP1 PUSH1 0x40 MSTORE POP DUP2 ADD SWAP1 PUSH2 0x266 SWAP2 SWAP1 PUSH2 0x91F JUMP JUMPDEST SWAP1 POP PUSH2 0x2C7 PUSH20 0xE0CA845DC9CB425970F9D4F88771DE30058322B0 PUSH32 0x0 PUSH32 0xFFFFFFFFFFFFFFFFFFFFFFFFFFFFFFFFFFFFFFFFFFFFFFFFFFFFFFFFFFFFFFFF PUSH2 0x596 JUMP JUMPDEST PUSH0 PUSH1 0x40 MLOAD DUP1 PUSH1 0xE0 ADD PUSH1 0x40 MSTORE DUP1 PUSH20 0xE0CA845DC9CB425970F9D4F88771DE30058322B0 PUSH20 0xFFFFFFFFFFFFFFFFFFFFFFFFFFFFFFFFFFFFFFFF AND DUP2 MSTORE PUSH1 0x20 ADD PUSH20 0xD28627157E141FE80320B6022E9345A882BC71BF PUSH20 0xFFFFFFFFFFFFFFFFFFFFFFFFFFFFFFFFFFFFFFFF AND DUP2 MSTORE PUSH1 0x20 ADD PUSH2 0x1F4 PUSH3 0xFFFFFF AND DUP2 MSTORE PUSH1 0x20 ADD CALLER PUSH20 0xFFFFFFFFFFFFFFFFFFFFFFFFFFFFFFFFFFFFFFFF AND DUP2 MSTORE PUSH1 0x20 ADD DUP4 DUP2 MSTORE PUSH1 0x20 ADD PUSH0 DUP2 MSTORE PUSH1 0x20 ADD PUSH0 PUSH20 0xFFFFFFFFFFFFFFFFFFFFFFFFFFFFFFFFFFFFFFFF AND DUP2 MSTORE POP SWAP1 POP PUSH32 0x0 PUSH20 0xFFFFFFFFFFFFFFFFFFFFFFFFFFFFFFFFFFFFFFFF AND PUSH4 0x4E45AAF DUP3 PUSH1 0x40 MLOAD DUP3 PUSH4 0xFFFFFFFF AND PUSH1 0xE0 SHL DUP2 MSTORE PUSH1 0x4 ADD PUSH2 0x3DD SWAP2 SWAP1 PUSH2 0x8F2 JUMP JUMPDEST PUSH1 0x20 PUSH1 0x40 MLOAD DUP1 DUP4 SUB DUP2 PUSH0 DUP8 GAS CALL ISZERO DUP1 ISZERO PUSH2 0x3F9 JUMPI RETURNDATASIZE PUSH0 DUP1 RETURNDATACOPY RETURNDATASIZE PUSH0 REVERT JUMPDEST POP POP POP POP PUSH1 0x40 MLOAD RETURNDATASIZE PUSH1 0x1F NOT PUSH1 0x1F DUP3 ADD AND DUP3 ADD DUP1 PUSH1 0x40 MSTORE POP DUP2 ADD SWAP1 PUSH2 0x41D SWAP2 SWAP1 PUSH2 0x91F JUMP JUMPDEST SWAP4 POP POP POP POP SWAP2 SWAP1 POP JUMP JUMPDEST PUSH32 0x0 DUP2 JUMP JUMPDEST PUSH20 0xE0CA845DC9CB425970F9D4F88771DE30058322B0 DUP2 JUMP JUMPDEST PUSH0 DUP1 DUP6 PUSH20 0xFFFFFFFFFFFFFFFFFFFFFFFFFFFFFFFFFFFFFFFF AND PUSH4 0x23B872DD DUP7 DUP7 DUP7 PUSH1 0x40 MLOAD PUSH1 0x24 ADD PUSH2 0x496 SWAP4 SWAP3 SWAP2 SWAP1 PUSH2 0x94A JUMP JUMPDEST PUSH1 0x40 MLOAD PUSH1 0x20 DUP2 DUP4 SUB SUB DUP2 MSTORE SWAP1 PUSH1 0x40 MSTORE SWAP1 PUSH1 0xE0 SHL PUSH1 0x20 DUP3 ADD DUP1 MLOAD PUSH28 0xFFFFFFFFFFFFFFFFFFFFFFFFFFFFFFFFFFFFFFFFFFFFFFFFFFFFFFFF DUP4 DUP2 DUP4 AND OR DUP4 MSTORE POP POP POP POP PUSH1 0x40 MLOAD PUSH2 0x4E4 SWAP2 SWAP1 PUSH2 0x9D1 JUMP JUMPDEST PUSH0 PUSH1 0x40 MLOAD DUP1 DUP4 SUB DUP2 PUSH0 DUP7 GAS CALL SWAP2 POP POP RETURNDATASIZE DUP1 PUSH0 DUP2 EQ PUSH2 0x51D JUMPI PUSH1 0x40 MLOAD SWAP2 POP PUSH1 0x1F NOT PUSH1 0x3F RETURNDATASIZE ADD AND DUP3 ADD PUSH1 0x40 MSTORE RETURNDATASIZE DUP3 MSTORE RETURNDATASIZE PUSH0 PUSH1 0x20 DUP5 ADD RETURNDATACOPY PUSH2 0x522 JUMP JUMPDEST PUSH1 0x60 SWAP2 POP JUMPDEST POP SWAP2 POP SWAP2 POP DUP2 DUP1 ISZERO PUSH2 0x54F JUMPI POP PUSH0 DUP2 MLOAD EQ DUP1 PUSH2 0x54E JUMPI POP DUP1 DUP1 PUSH1 0x20 ADD SWAP1 MLOAD DUP2 ADD SWAP1 PUSH2 0x54D SWAP2 SWAP1 PUSH2 0xA1C JUMP JUMPDEST JUMPDEST JUMPDEST PUSH2 0x58E JUMPI PUSH1 0x40 MLOAD PUSH32 0x8C379A000000000000000000000000000000000000000000000000000000000 DUP2 MSTORE PUSH1 0x4 ADD PUSH2 0x585 SWAP1 PUSH2 0xAC7 JUMP JUMPDEST PUSH1 0x40 MLOAD DUP1 SWAP2 SUB SWAP1 REVERT JUMPDEST POP POP POP POP POP POP JUMP JUMPDEST PUSH0 DUP1 DUP5 PUSH20 0xFFFFFFFFFFFFFFFFFFFFFFFFFFFFFFFFFFFFFFFF AND PUSH4 0x95EA7B3 DUP6 DUP6 PUSH1 0x40 MLOAD PUSH1 0x24 ADD PUSH2 0x5C7 SWAP3 SWAP2 SWAP1 PUSH2 0xAE5 JUMP JUMPDEST PUSH1 0x40 MLOAD PUSH1 0x20 DUP2 DUP4 SUB SUB DUP2 MSTORE SWAP1 PUSH1 0x40 MSTORE SWAP1 PUSH1 0xE0 SHL PUSH1 0x20 DUP3 ADD DUP1 MLOAD PUSH28 0xFFFFFFFFFFFFFFFFFFFFFFFFFFFFFFFFFFFFFFFFFFFFFFFFFFFFFFFF DUP4 DUP2 DUP4 AND OR DUP4 MSTORE POP POP POP POP PUSH1 0x40 MLOAD PUSH2 0x615 SWAP2 SWAP1 PUSH2 0x9D1 JUMP JUMPDEST PUSH0 PUSH1 0x40 MLOAD DUP1 DUP4 SUB DUP2 PUSH0 DUP7 GAS CALL SWAP2 POP POP RETURNDATASIZE DUP1 PUSH0 DUP2 EQ PUSH2 0x64E JUMPI PUSH1 0x40 MLOAD SWAP2 POP PUSH1 0x1F NOT PUSH1 0x3F RETURNDATASIZE ADD AND DUP3 ADD PUSH1 0x40 MSTORE RETURNDATASIZE DUP3 MSTORE RETURNDATASIZE PUSH0 PUSH1 0x20 DUP5 ADD RETURNDATACOPY PUSH2 0x653 JUMP JUMPDEST PUSH1 0x60 SWAP2 POP JUMPDEST POP SWAP2 POP SWAP2 POP DUP2 DUP1 ISZERO PUSH2 0x680 JUMPI POP PUSH0 DUP2 MLOAD EQ DUP1 PUSH2 0x67F JUMPI POP DUP1 DUP1 PUSH1 0x20 ADD SWAP1 MLOAD DUP2 ADD SWAP1 PUSH2 0x67E SWAP2 SWAP1 PUSH2 0xA1C JUMP JUMPDEST JUMPDEST JUMPDEST PUSH2 0x6BF JUMPI PUSH1 0x40 MLOAD PUSH32 0x8C379A000000000000000000000000000000000000000000000000000000000 DUP2 MSTORE PUSH1 0x4 ADD PUSH2 0x6B6 SWAP1 PUSH2 0xB7C JUMP JUMPDEST PUSH1 0x40 MLOAD DUP1 SWAP2 SUB SWAP1 REVERT JUMPDEST POP POP POP POP POP JUMP JUMPDEST PUSH0 DUP1 REVERT JUMPDEST PUSH0 DUP2 SWAP1 POP SWAP2 SWAP1 POP JUMP JUMPDEST PUSH2 0x6DC DUP2 PUSH2 0x6CA JUMP JUMPDEST DUP2 EQ PUSH2 0x6E6 JUMPI PUSH0 DUP1 REVERT JUMPDEST POP JUMP JUMPDEST PUSH0 DUP2 CALLDATALOAD SWAP1 POP PUSH2 0x6F7 DUP2 PUSH2 0x6D3 JUMP JUMPDEST SWAP3 SWAP2 POP POP JUMP JUMPDEST PUSH0 PUSH1 0x20 DUP3 DUP5 SUB SLT ISZERO PUSH2 0x712 JUMPI PUSH2 0x711 PUSH2 0x6C6 JUMP JUMPDEST JUMPDEST PUSH0 PUSH2 0x71F DUP5 DUP3 DUP6 ADD PUSH2 0x6E9 JUMP JUMPDEST SWAP2 POP POP SWAP3 SWAP2 POP POP JUMP JUMPDEST PUSH2 0x731 DUP2 PUSH2 0x6CA JUMP JUMPDEST DUP3 MSTORE POP POP JUMP JUMPDEST PUSH0 PUSH1 0x20 DUP3 ADD SWAP1 POP PUSH2 0x74A PUSH0 DUP4 ADD DUP5 PUSH2 0x728 JUMP JUMPDEST SWAP3 SWAP2 POP POP JUMP JUMPDEST PUSH0 PUSH20 0xFFFFFFFFFFFFFFFFFFFFFFFFFFFFFFFFFFFFFFFF DUP3 AND SWAP1 POP SWAP2 SWAP1 POP JUMP JUMPDEST PUSH0 DUP2 SWAP1 POP SWAP2 SWAP1 POP JUMP JUMPDEST PUSH0 PUSH2 0x792 PUSH2 0x78D PUSH2 0x788 DUP5 PUSH2 0x750 JUMP JUMPDEST PUSH2 0x76F JUMP JUMPDEST PUSH2 0x750 JUMP JUMPDEST SWAP1 POP SWAP2 SWAP1 POP JUMP JUMPDEST PUSH0 PUSH2 0x7A3 DUP3 PUSH2 0x778 JUMP JUMPDEST SWAP1 POP SWAP2 SWAP1 POP JUMP JUMPDEST PUSH0 PUSH2 0x7B4 DUP3 PUSH2 0x799 JUMP JUMPDEST SWAP1 POP SWAP2 SWAP1 POP JUMP JUMPDEST PUSH2 0x7C4 DUP2 PUSH2 0x7AA JUMP JUMPDEST DUP3 MSTORE POP POP JUMP JUMPDEST PUSH0 PUSH1 0x20 DUP3 ADD SWAP1 POP PUSH2 0x7DD PUSH0 DUP4 ADD DUP5 PUSH2 0x7BB JUMP JUMPDEST SWAP3 SWAP2 POP POP JUMP JUMPDEST PUSH0 PUSH2 0x7ED DUP3 PUSH2 0x750 JUMP JUMPDEST SWAP1 POP SWAP2 SWAP1 POP JUMP JUMPDEST PUSH2 0x7FD DUP2 PUSH2 0x7E3 JUMP JUMPDEST DUP3 MSTORE POP POP JUMP JUMPDEST PUSH0 PUSH1 0x20 DUP3 ADD SWAP1 POP PUSH2 0x816 PUSH0 DUP4 ADD DUP5 PUSH2 0x7F4 JUMP JUMPDEST SWAP3 SWAP2 POP POP JUMP JUMPDEST PUSH2 0x825 DUP2 PUSH2 0x7E3 JUMP JUMPDEST DUP3 MSTORE POP POP JUMP JUMPDEST PUSH0 PUSH3 0xFFFFFF DUP3 AND SWAP1 POP SWAP2 SWAP1 POP JUMP JUMPDEST PUSH2 0x842 DUP2 PUSH2 0x82B JUMP JUMPDEST DUP3 MSTORE POP POP JUMP JUMPDEST PUSH2 0x851 DUP2 PUSH2 0x6CA JUMP JUMPDEST DUP3 MSTORE POP POP JUMP JUMPDEST PUSH2 0x860 DUP2 PUSH2 0x750 JUMP JUMPDEST DUP3 MSTORE POP POP JUMP JUMPDEST PUSH1 0xE0 DUP3 ADD PUSH0 DUP3 ADD MLOAD PUSH2 0x87A PUSH0 DUP6 ADD DUP3 PUSH2 0x81C JUMP JUMPDEST POP PUSH1 0x20 DUP3 ADD MLOAD PUSH2 0x88D PUSH1 0x20 DUP6 ADD DUP3 PUSH2 0x81C JUMP JUMPDEST POP PUSH1 0x40 DUP3 ADD MLOAD PUSH2 0x8A0 PUSH1 0x40 DUP6 ADD DUP3 PUSH2 0x839 JUMP JUMPDEST POP PUSH1 0x60 DUP3 ADD MLOAD PUSH2 0x8B3 PUSH1 0x60 DUP6 ADD DUP3 PUSH2 0x81C JUMP JUMPDEST POP PUSH1 0x80 DUP3 ADD MLOAD PUSH2 0x8C6 PUSH1 0x80 DUP6 ADD DUP3 PUSH2 0x848 JUMP JUMPDEST POP PUSH1 0xA0 DUP3 ADD MLOAD PUSH2 0x8D9 PUSH1 0xA0 DUP6 ADD DUP3 PUSH2 0x848 JUMP JUMPDEST POP PUSH1 0xC0 DUP3 ADD MLOAD PUSH2 0x8EC PUSH1 0xC0 DUP6 ADD DUP3 PUSH2 0x857 JUMP JUMPDEST POP POP POP POP JUMP JUMPDEST PUSH0 PUSH1 0xE0 DUP3 ADD SWAP1 POP PUSH2 0x905 PUSH0 DUP4 ADD DUP5 PUSH2 0x866 JUMP JUMPDEST SWAP3 SWAP2 POP POP JUMP JUMPDEST PUSH0 DUP2 MLOAD SWAP1 POP PUSH2 0x919 DUP2 PUSH2 0x6D3 JUMP JUMPDEST SWAP3 SWAP2 POP POP JUMP JUMPDEST PUSH0 PUSH1 0x20 DUP3 DUP5 SUB SLT ISZERO PUSH2 0x934 JUMPI PUSH2 0x933 PUSH2 0x6C6 JUMP JUMPDEST JUMPDEST PUSH0 PUSH2 0x941 DUP5 DUP3 DUP6 ADD PUSH2 0x90B JUMP JUMPDEST SWAP2 POP POP SWAP3 SWAP2 POP POP JUMP JUMPDEST PUSH0 PUSH1 0x60 DUP3 ADD SWAP1 POP PUSH2 0x95D PUSH0 DUP4 ADD DUP7 PUSH2 0x7F4 JUMP JUMPDEST PUSH2 0x96A PUSH1 0x20 DUP4 ADD DUP6 PUSH2 0x7F4 JUMP JUMPDEST PUSH2 0x977 PUSH1 0x40 DUP4 ADD DUP5 PUSH2 0x728 JUMP JUMPDEST SWAP5 SWAP4 POP POP POP POP JUMP JUMPDEST PUSH0 DUP2 MLOAD SWAP1 POP SWAP2 SWAP1 POP JUMP JUMPDEST PUSH0 DUP2 SWAP1 POP SWAP3 SWAP2 POP POP JUMP JUMPDEST DUP3 DUP2 DUP4 MCOPY PUSH0 DUP4 DUP4 ADD MSTORE POP POP POP JUMP JUMPDEST PUSH0 PUSH2 0x9AB DUP3 PUSH2 0x97F JUMP JUMPDEST PUSH2 0x9B5 DUP2 DUP6 PUSH2 0x989 JUMP JUMPDEST SWAP4 POP PUSH2 0x9C5 DUP2 DUP6 PUSH1 0x20 DUP7 ADD PUSH2 0x993 JUMP JUMPDEST DUP1 DUP5 ADD SWAP2 POP POP SWAP3 SWAP2 POP POP JUMP JUMPDEST PUSH0 PUSH2 0x9DC DUP3 DUP5 PUSH2 0x9A1 JUMP JUMPDEST SWAP2 POP DUP2 SWAP1 POP SWAP3 SWAP2 POP POP JUMP JUMPDEST PUSH0 DUP2 ISZERO ISZERO SWAP1 POP SWAP2 SWAP1 POP JUMP JUMPDEST PUSH2 0x9FB DUP2 PUSH2 0x9E7 JUMP JUMPDEST DUP2 EQ PUSH2 0xA05 JUMPI PUSH0 DUP1 REVERT JUMPDEST POP JUMP JUMPDEST PUSH0 DUP2 MLOAD SWAP1 POP PUSH2 0xA16 DUP2 PUSH2 0x9F2 JUMP JUMPDEST SWAP3 SWAP2 POP POP JUMP JUMPDEST PUSH0 PUSH1 0x20 DUP3 DUP5 SUB SLT ISZERO PUSH2 0xA31 JUMPI PUSH2 0xA30 PUSH2 0x6C6 JUMP JUMPDEST JUMPDEST PUSH0 PUSH2 0xA3E DUP5 DUP3 DUP6 ADD PUSH2 0xA08 JUMP JUMPDEST SWAP2 POP POP SWAP3 SWAP2 POP POP JUMP JUMPDEST PUSH0 DUP3 DUP3 MSTORE PUSH1 0x20 DUP3 ADD SWAP1 POP SWAP3 SWAP2 POP POP JUMP JUMPDEST PUSH32 0x5472616E7366657248656C7065723A3A7472616E7366657246726F6D3A207472 PUSH0 DUP3 ADD MSTORE PUSH32 0x616E7366657246726F6D206661696C6564000000000000000000000000000000 PUSH1 0x20 DUP3 ADD MSTORE POP JUMP JUMPDEST PUSH0 PUSH2 0xAB1 PUSH1 0x31 DUP4 PUSH2 0xA47 JUMP JUMPDEST SWAP2 POP PUSH2 0xABC DUP3 PUSH2 0xA57 JUMP JUMPDEST PUSH1 0x40 DUP3 ADD SWAP1 POP SWAP2 SWAP1 POP JUMP JUMPDEST PUSH0 PUSH1 0x20 DUP3 ADD SWAP1 POP DUP2 DUP2 SUB PUSH0 DUP4 ADD MSTORE PUSH2 0xADE DUP2 PUSH2 0xAA5 JUMP JUMPDEST SWAP1 POP SWAP2 SWAP1 POP JUMP JUMPDEST PUSH0 PUSH1 0x40 DUP3 ADD SWAP1 POP PUSH2 0xAF8 PUSH0 DUP4 ADD DUP6 PUSH2 0x7F4 JUMP JUMPDEST PUSH2 0xB05 PUSH1 0x20 DUP4 ADD DUP5 PUSH2 0x728 JUMP JUMPDEST SWAP4 SWAP3 POP POP POP JUMP JUMPDEST PUSH32 0x5472616E7366657248656C7065723A3A73616665417070726F76653A20617070 PUSH0 DUP3 ADD MSTORE PUSH32 0x726F7665206661696C6564000000000000000000000000000000000000000000 PUSH1 0x20 DUP3 ADD MSTORE POP JUMP JUMPDEST PUSH0 PUSH2 0xB66 PUSH1 0x2B DUP4 PUSH2 0xA47 JUMP JUMPDEST SWAP2 POP PUSH2 0xB71 DUP3 PUSH2 0xB0C JUMP JUMPDEST PUSH1 0x40 DUP3 ADD SWAP1 POP SWAP2 SWAP1 POP JUMP JUMPDEST PUSH0 PUSH1 0x20 DUP3 ADD SWAP1 POP DUP2 DUP2 SUB PUSH0 DUP4 ADD MSTORE PUSH2 0xB93 DUP2 PUSH2 0xB5A JUMP JUMPDEST SWAP1 POP SWAP2 SWAP1 POP JUMP INVALID LOG2 PUSH5 0x6970667358 0x22 SLT KECCAK256 0xC8 PUSH15 0xA7621F364A4DE9D406F63A836D9324 0xDC 0xEA EXTCODEHASH 0xF7 0xA7 0xE8 SHL SLOAD 0xC3 GT 0xBB MSIZE BLOBBASEFEE SWAP14 SWAP7 PUSH5 0x736F6C6343 STOP ADDMOD NOT STOP CALLER "
		},
		"gasEstimates": {
			"creation": {
				"codeDepositCost": "604800",
				"executionCost": "infinite",
				"totalCost": "infinite"
			},
			"external": {
				"TIGER()": "395",
				"doArbitrage(uint256)": "infinite",
				"swapRouter()": "infinite"
			}
		},
		"methodIdentifiers": {
			"TIGER()": "f8bb9160",
			"doArbitrage(uint256)": "a048600d",
			"swapRouter()": "c31c9c07"
		}
	},
	"abi": [
		{
			"inputs": [],
			"name": "TIGER",
			"outputs": [
				{
					"internalType": "address",
					"name": "",
					"type": "address"
				}
			],
			"stateMutability": "view",
			"type": "function"
		},
		{
			"inputs": [
				{
					"internalType": "uint256",
					"name": "amountIn",
					"type": "uint256"
				}
			],
			"name": "doArbitrage",
			"outputs": [
				{
					"internalType": "uint256",
					"name": "amountOut",
					"type": "uint256"
				}
			],
			"stateMutability": "nonpayable",
			"type": "function"
		},
		{
			"inputs": [],
			"name": "swapRouter",
			"outputs": [
				{
					"internalType": "contract IV3SwapRouter",
					"name": "",
					"type": "address"
				}
			],
			"stateMutability": "view",
			"type": "function"
		}
	]
}