{
  "contractName": "Arbitrage",
  "abi": [
    {
      "inputs": [
        {
          "internalType": "uint256",
          "name": "amountIn",
          "type": "uint256"
        },
        {
          "internalType": "address",
          "name": "router",
          "type": "address"
        },
        {
          "internalType": "address",
          "name": "LUSD",
          "type": "address"
        },
        {
          "internalType": "address",
          "name": "TIGER",
          "type": "address"
        }
      ],
      "name": "doArbitrage",
      "outputs": [
        {
          "internalType": "uint256",
          "name": "amountOut",
          "type": "uint256"
        }
      ],
      "stateMutability": "nonpayable",
      "type": "function"
    }
  ],
  "bytecode": "0x6080604052348015600e575f80fd5b506108d88061001c5f395ff3fe608060405234801561000f575f80fd5b5060043610610029575f3560e01c8063212eaf841461002d575b5f80fd5b61004760048036038101906100429190610489565b61005d565b60405161005491906104fc565b60405180910390f35b5f8084905061006e84333089610195565b6100798482886102c8565b5f6040518060e001604052808673ffffffffffffffffffffffffffffffffffffffff1681526020018573ffffffffffffffffffffffffffffffffffffffff168152602001610bb862ffffff1681526020013073ffffffffffffffffffffffffffffffffffffffff1681526020018881526020015f81526020015f73ffffffffffffffffffffffffffffffffffffffff1681525090505f8273ffffffffffffffffffffffffffffffffffffffff166304e45aaf836040518263ffffffff1660e01b815260040161014891906105eb565b6020604051808303815f875af1158015610164573d5f803e3d5ffd5b505050506040513d601f19601f820116820180604052508101906101889190610618565b9050505050949350505050565b5f808573ffffffffffffffffffffffffffffffffffffffff166323b872dd8686866040516024016101c893929190610652565b6040516020818303038152906040529060e01b6020820180517bffffffffffffffffffffffffffffffffffffffffffffffffffffffff838183161783525050505060405161021691906106d9565b5f604051808303815f865af19150503d805f811461024f576040519150601f19603f3d011682016040523d82523d5f602084013e610254565b606091505b509150915081801561028157505f8151148061028057508080602001905181019061027f9190610724565b5b5b6102c0576040517f08c379a00000000000000000000000000000000000000000000000000000000081526004016102b7906107cf565b60405180910390fd5b505050505050565b5f808473ffffffffffffffffffffffffffffffffffffffff1663095ea7b385856040516024016102f99291906107ed565b6040516020818303038152906040529060e01b6020820180517bffffffffffffffffffffffffffffffffffffffffffffffffffffffff838183161783525050505060405161034791906106d9565b5f604051808303815f865af19150503d805f8114610380576040519150601f19603f3d011682016040523d82523d5f602084013e610385565b606091505b50915091508180156103b257505f815114806103b15750808060200190518101906103b09190610724565b5b5b6103f1576040517f08c379a00000000000000000000000000000000000000000000000000000000081526004016103e890610884565b60405180910390fd5b5050505050565b5f80fd5b5f819050919050565b61040e816103fc565b8114610418575f80fd5b50565b5f8135905061042981610405565b92915050565b5f73ffffffffffffffffffffffffffffffffffffffff82169050919050565b5f6104588261042f565b9050919050565b6104688161044e565b8114610472575f80fd5b50565b5f813590506104838161045f565b92915050565b5f805f80608085870312156104a1576104a06103f8565b5b5f6104ae8782880161041b565b94505060206104bf87828801610475565b93505060406104d087828801610475565b92505060606104e187828801610475565b91505092959194509250565b6104f6816103fc565b82525050565b5f60208201905061050f5f8301846104ed565b92915050565b61051e8161044e565b82525050565b5f62ffffff82169050919050565b61053b81610524565b82525050565b61054a816103fc565b82525050565b6105598161042f565b82525050565b60e082015f8201516105735f850182610515565b5060208201516105866020850182610515565b5060408201516105996040850182610532565b5060608201516105ac6060850182610515565b5060808201516105bf6080850182610541565b5060a08201516105d260a0850182610541565b5060c08201516105e560c0850182610550565b50505050565b5f60e0820190506105fe5f83018461055f565b92915050565b5f8151905061061281610405565b92915050565b5f6020828403121561062d5761062c6103f8565b5b5f61063a84828501610604565b91505092915050565b61064c8161044e565b82525050565b5f6060820190506106655f830186610643565b6106726020830185610643565b61067f60408301846104ed565b949350505050565b5f81519050919050565b5f81905092915050565b8281835e5f83830152505050565b5f6106b382610687565b6106bd8185610691565b93506106cd81856020860161069b565b80840191505092915050565b5f6106e482846106a9565b915081905092915050565b5f8115159050919050565b610703816106ef565b811461070d575f80fd5b50565b5f8151905061071e816106fa565b92915050565b5f60208284031215610739576107386103f8565b5b5f61074684828501610710565b91505092915050565b5f82825260208201905092915050565b7f5472616e7366657248656c7065723a3a7472616e7366657246726f6d3a2074725f8201527f616e7366657246726f6d206661696c6564000000000000000000000000000000602082015250565b5f6107b960318361074f565b91506107c48261075f565b604082019050919050565b5f6020820190508181035f8301526107e6816107ad565b9050919050565b5f6040820190506108005f830185610643565b61080d60208301846104ed565b9392505050565b7f5472616e7366657248656c7065723a3a73616665417070726f76653a206170705f8201527f726f7665206661696c6564000000000000000000000000000000000000000000602082015250565b5f61086e602b8361074f565b915061087982610814565b604082019050919050565b5f6020820190508181035f83015261089b81610862565b905091905056fea2646970667358221220da5c67649a0748d0b39dae5e395d906ecb92e83b51c8c8a451c16995ee02c07964736f6c63430008190033",
  "immutableReferences": {},
  "source": "//SPDX-License-Identifier: Unlicense\npragma solidity >=0.7.5;\npragma abicoder v2;\n\nimport \"@uniswap/v3-periphery/contracts/interfaces/ISwapRouter.sol\";\nimport \"@uniswap/lib/contracts/libraries/TransferHelper.sol\";\nimport \"@uniswap/swap-router-contracts/contracts/interfaces/IV3SwapRouter.sol\";\n\ncontract Arbitrage {\n\n    uint256 constant MAX_UINT = 2**256 - 1;\n\n    function doArbitrage(uint256 amountIn, address router, address LUSD, address TIGER)\n        external\n        returns (uint256 amountOut)\n    {\n\n        IV3SwapRouter swapRouter = IV3SwapRouter(router);\n\n        // Use TransferHelper to transfer LUSD from your wallet to the smart contract\n        // Make sure that you approve this contract to spend LUSD through the LUSD contract\n        TransferHelper.safeTransferFrom(\n            LUSD, // Token \n            msg.sender, // Sender\n            address(this), // Recipient\n            amountIn // Amount\n        );\n\n        // Approve the SwapRouter to transfer our LUSD\n        TransferHelper.safeApprove(LUSD, address(swapRouter), amountIn);\n        \n        // Create transaction for swapping LUSD to TIGER \n        // Using Pool 1 or Pool 2??\n        IV3SwapRouter.ExactInputSingleParams memory params = IV3SwapRouter\n            .ExactInputSingleParams({\n                tokenIn: LUSD,\n                tokenOut: TIGER,\n                fee: 3000, // Set to 500 if pool 1 and 3000 if pool 2\n                recipient: address(this),// Who is receiving the TIGER //\n                amountIn: amountIn,\n                amountOutMinimum: 0,\n                sqrtPriceLimitX96: 0\n            });\n\n        \n        // Execute transaction and store amount of TIGER received\n        // Remember: in the intermediary steps, LUSD/TIGER is stored \n        // directly in the smart contract\n        uint256 amountOut1 = swapRouter.exactInputSingle(params);\n        /*\n        // Approve the SwapRouter to transfer our new TIGER\n        TransferHelper.safeApprove(TIGER, address(swapRouter), MAX_UINT);\n\n        // Create transaction for swapping TIGER to LUSD \n        // Using Pool 1 or Pool 2 ?? \n        IV3SwapRouter.ExactInputSingleParams memory params2 = IV3SwapRouter\n            .ExactInputSingleParams({\n                tokenIn: TIGER,\n                tokenOut: LUSD,\n                fee: 500, // Set to 500 if pool 1 and 3000 if pool 2\n                recipient: msg.sender, // Who is receiving the LUSD? This is the last step of the arbitrage. // \n                amountIn: amountOut1, // Think about what value we would like to send \n                // (hint: there are various reasons why the estimated amount  \n                // of LUSD does not align with the amount of LUSD received)\n                amountOutMinimum: 0,\n                sqrtPriceLimitX96: 0\n            });\n\n        // Execute transaction and store amount of TIGER received\n        amountOut = swapRouter.exactInputSingle(params2);\n        */\n    }\n}",
  "sourcePath": "/Users/owenyang/Documents/COS473/FinalProject/contracts/AtomicArbitrage/benchmark.sol",
  "compiler": {
    "name": "solc",
    "version": "0.8.25+commit.b61c2a91.Emscripten.clang"
  },
  "schemaVersion": "3.4.16",
  "updatedAt": "2024-04-11T15:18:37.098Z",
  "devdoc": {
    "kind": "dev",
    "methods": {},
    "version": 1
  },
  "userdoc": {
    "kind": "user",
    "methods": {},
    "version": 1
  }
}