{
  "contractName": "ERC20Wrapper",
  "abi": [
    {
      "inputs": [
        {
          "internalType": "address",
          "name": "underlyingToken",
          "type": "address"
        }
      ],
      "stateMutability": "nonpayable",
      "type": "constructor"
    },
    {
      "anonymous": false,
      "inputs": [
        {
          "indexed": true,
          "internalType": "address",
          "name": "owner",
          "type": "address"
        },
        {
          "indexed": true,
          "internalType": "address",
          "name": "spender",
          "type": "address"
        },
        {
          "indexed": false,
          "internalType": "uint256",
          "name": "value",
          "type": "uint256"
        }
      ],
      "name": "Approval",
      "type": "event"
    },
    {
      "anonymous": false,
      "inputs": [
        {
          "indexed": true,
          "internalType": "address",
          "name": "from",
          "type": "address"
        },
        {
          "indexed": true,
          "internalType": "address",
          "name": "to",
          "type": "address"
        },
        {
          "indexed": false,
          "internalType": "uint256",
          "name": "value",
          "type": "uint256"
        }
      ],
      "name": "Transfer",
      "type": "event"
    },
    {
      "inputs": [
        {
          "internalType": "address",
          "name": "owner",
          "type": "address"
        },
        {
          "internalType": "address",
          "name": "spender",
          "type": "address"
        }
      ],
      "name": "allowance",
      "outputs": [
        {
          "internalType": "uint256",
          "name": "",
          "type": "uint256"
        }
      ],
      "stateMutability": "view",
      "type": "function"
    },
    {
      "inputs": [
        {
          "internalType": "address",
          "name": "spender",
          "type": "address"
        },
        {
          "internalType": "uint256",
          "name": "amount",
          "type": "uint256"
        }
      ],
      "name": "approve",
      "outputs": [
        {
          "internalType": "bool",
          "name": "",
          "type": "bool"
        }
      ],
      "stateMutability": "nonpayable",
      "type": "function"
    },
    {
      "inputs": [
        {
          "internalType": "address",
          "name": "account",
          "type": "address"
        }
      ],
      "name": "balanceOf",
      "outputs": [
        {
          "internalType": "uint256",
          "name": "",
          "type": "uint256"
        }
      ],
      "stateMutability": "view",
      "type": "function"
    },
    {
      "inputs": [],
      "name": "decimals",
      "outputs": [
        {
          "internalType": "uint8",
          "name": "",
          "type": "uint8"
        }
      ],
      "stateMutability": "view",
      "type": "function"
    },
    {
      "inputs": [
        {
          "internalType": "address",
          "name": "spender",
          "type": "address"
        },
        {
          "internalType": "uint256",
          "name": "subtractedValue",
          "type": "uint256"
        }
      ],
      "name": "decreaseAllowance",
      "outputs": [
        {
          "internalType": "bool",
          "name": "",
          "type": "bool"
        }
      ],
      "stateMutability": "nonpayable",
      "type": "function"
    },
    {
      "inputs": [
        {
          "internalType": "address",
          "name": "spender",
          "type": "address"
        },
        {
          "internalType": "uint256",
          "name": "addedValue",
          "type": "uint256"
        }
      ],
      "name": "increaseAllowance",
      "outputs": [
        {
          "internalType": "bool",
          "name": "",
          "type": "bool"
        }
      ],
      "stateMutability": "nonpayable",
      "type": "function"
    },
    {
      "inputs": [],
      "name": "name",
      "outputs": [
        {
          "internalType": "string",
          "name": "",
          "type": "string"
        }
      ],
      "stateMutability": "view",
      "type": "function"
    },
    {
      "inputs": [],
      "name": "symbol",
      "outputs": [
        {
          "internalType": "string",
          "name": "",
          "type": "string"
        }
      ],
      "stateMutability": "view",
      "type": "function"
    },
    {
      "inputs": [],
      "name": "totalSupply",
      "outputs": [
        {
          "internalType": "uint256",
          "name": "",
          "type": "uint256"
        }
      ],
      "stateMutability": "view",
      "type": "function"
    },
    {
      "inputs": [
        {
          "internalType": "address",
          "name": "to",
          "type": "address"
        },
        {
          "internalType": "uint256",
          "name": "amount",
          "type": "uint256"
        }
      ],
      "name": "transfer",
      "outputs": [
        {
          "internalType": "bool",
          "name": "",
          "type": "bool"
        }
      ],
      "stateMutability": "nonpayable",
      "type": "function"
    },
    {
      "inputs": [
        {
          "internalType": "address",
          "name": "from",
          "type": "address"
        },
        {
          "internalType": "address",
          "name": "to",
          "type": "address"
        },
        {
          "internalType": "uint256",
          "name": "amount",
          "type": "uint256"
        }
      ],
      "name": "transferFrom",
      "outputs": [
        {
          "internalType": "bool",
          "name": "",
          "type": "bool"
        }
      ],
      "stateMutability": "nonpayable",
      "type": "function"
    },
    {
      "inputs": [
        {
          "internalType": "uint256",
          "name": "amount",
          "type": "uint256"
        }
      ],
      "name": "deposit",
      "outputs": [],
      "stateMutability": "nonpayable",
      "type": "function"
    },
    {
      "inputs": [
        {
          "internalType": "uint256",
          "name": "amount",
          "type": "uint256"
        }
      ],
      "name": "withdraw",
      "outputs": [],
      "stateMutability": "nonpayable",
      "type": "function"
    }
  ],
  "bytecode": "0x608060405234801561000f575f80fd5b50604051611e7f380380611e7f833981810160405281019061003191906101d1565b6040518060400160405280600c81526020017f57726170706564204c45544800000000000000000000000000000000000000008152506040518060400160405280600581526020017f574c45544800000000000000000000000000000000000000000000000000000081525081600390816100ac9190610436565b5080600490816100bc9190610436565b5050503073ffffffffffffffffffffffffffffffffffffffff168173ffffffffffffffffffffffffffffffffffffffff160361012d576040517f08c379a00000000000000000000000000000000000000000000000000000000081526004016101249061055f565b60405180910390fd5b8060055f6101000a81548173ffffffffffffffffffffffffffffffffffffffff021916908373ffffffffffffffffffffffffffffffffffffffff1602179055505061057d565b5f80fd5b5f73ffffffffffffffffffffffffffffffffffffffff82169050919050565b5f6101a082610177565b9050919050565b6101b081610196565b81146101ba575f80fd5b50565b5f815190506101cb816101a7565b92915050565b5f602082840312156101e6576101e5610173565b5b5f6101f3848285016101bd565b91505092915050565b5f81519050919050565b7f4e487b71000000000000000000000000000000000000000000000000000000005f52604160045260245ffd5b7f4e487b71000000000000000000000000000000000000000000000000000000005f52602260045260245ffd5b5f600282049050600182168061027757607f821691505b60208210810361028a57610289610233565b5b50919050565b5f819050815f5260205f209050919050565b5f6020601f8301049050919050565b5f82821b905092915050565b5f600883026102ec7fffffffffffffffffffffffffffffffffffffffffffffffffffffffffffffffff826102b1565b6102f686836102b1565b95508019841693508086168417925050509392505050565b5f819050919050565b5f819050919050565b5f61033a6103356103308461030e565b610317565b61030e565b9050919050565b5f819050919050565b61035383610320565b61036761035f82610341565b8484546102bd565b825550505050565b5f90565b61037b61036f565b61038681848461034a565b505050565b5b818110156103a95761039e5f82610373565b60018101905061038c565b5050565b601f8211156103ee576103bf81610290565b6103c8846102a2565b810160208510156103d7578190505b6103eb6103e3856102a2565b83018261038b565b50505b505050565b5f82821c905092915050565b5f61040e5f19846008026103f3565b1980831691505092915050565b5f61042683836103ff565b9150826002028217905092915050565b61043f826101fc565b67ffffffffffffffff81111561045857610457610206565b5b6104628254610260565b61046d8282856103ad565b5f60209050601f83116001811461049e575f841561048c578287015190505b610496858261041b565b8655506104fd565b601f1984166104ac86610290565b5f5b828110156104d3578489015182556001820191506020850194506020810190506104ae565b868310156104f057848901516104ec601f8916826103ff565b8355505b6001600288020188555050505b505050505050565b5f82825260208201905092915050565b7f4552433230577261707065723a2063616e6e6f742073656c66207772617000005f82015250565b5f610549601e83610505565b915061055482610515565b602082019050919050565b5f6020820190508181035f8301526105768161053d565b9050919050565b6118f58061058a5f395ff3fe608060405234801561000f575f80fd5b50600436106100cd575f3560e01c8063395093511161008a578063a457c2d711610064578063a457c2d714610225578063a9059cbb14610255578063b6b55f2514610285578063dd62ed3e146102a1576100cd565b806339509351146101a757806370a08231146101d757806395d89b4114610207576100cd565b806306fdde03146100d1578063095ea7b3146100ef57806318160ddd1461011f57806323b872dd1461013d5780632e1a7d4d1461016d578063313ce56714610189575b5f80fd5b6100d96102d1565b6040516100e69190610fa0565b60405180910390f35b61010960048036038101906101049190611051565b610361565b60405161011691906110a9565b60405180910390f35b610127610383565b60405161013491906110d1565b60405180910390f35b610157600480360381019061015291906110ea565b61038c565b60405161016491906110a9565b60405180910390f35b6101876004803603810190610182919061113a565b6103ba565b005b610191610470565b60405161019e9190611180565b60405180910390f35b6101c160048036038101906101bc9190611051565b610478565b6040516101ce91906110a9565b60405180910390f35b6101f160048036038101906101ec9190611199565b6104ae565b6040516101fe91906110d1565b60405180910390f35b61020f6104f3565b60405161021c9190610fa0565b60405180910390f35b61023f600480360381019061023a9190611051565b610583565b60405161024c91906110a9565b60405180910390f35b61026f600480360381019061026a9190611051565b6105f8565b60405161027c91906110a9565b60405180910390f35b61029f600480360381019061029a919061113a565b61061a565b005b6102bb60048036038101906102b691906111c4565b6106d2565b6040516102c891906110d1565b60405180910390f35b6060600380546102e09061122f565b80601f016020809104026020016040519081016040528092919081815260200182805461030c9061122f565b80156103575780601f1061032e57610100808354040283529160200191610357565b820191905f5260205f20905b81548152906001019060200180831161033a57829003601f168201915b5050505050905090565b5f8061036b610754565b905061037881858561075b565b600191505092915050565b5f600254905090565b5f80610396610754565b90506103a385828561091e565b6103ae8585856109a9565b60019150509392505050565b5f6103c3610754565b90506103cf8183610c15565b60055f9054906101000a900473ffffffffffffffffffffffffffffffffffffffff1673ffffffffffffffffffffffffffffffffffffffff1663a9059cbb82846040518363ffffffff1660e01b815260040161042b92919061126e565b6020604051808303815f875af1158015610447573d5f803e3d5ffd5b505050506040513d601f19601f8201168201806040525081019061046b91906112bf565b505050565b5f6012905090565b5f80610482610754565b90506104a381858561049485896106d2565b61049e9190611317565b61075b565b600191505092915050565b5f805f8373ffffffffffffffffffffffffffffffffffffffff1673ffffffffffffffffffffffffffffffffffffffff1681526020019081526020015f20549050919050565b6060600480546105029061122f565b80601f016020809104026020016040519081016040528092919081815260200182805461052e9061122f565b80156105795780601f1061055057610100808354040283529160200191610579565b820191905f5260205f20905b81548152906001019060200180831161055c57829003601f168201915b5050505050905090565b5f8061058d610754565b90505f61059a82866106d2565b9050838110156105df576040517f08c379a00000000000000000000000000000000000000000000000000000000081526004016105d6906113ba565b60405180910390fd5b6105ec828686840361075b565b60019250505092915050565b5f80610602610754565b905061060f8185856109a9565b600191505092915050565b5f610623610754565b905060055f9054906101000a900473ffffffffffffffffffffffffffffffffffffffff1673ffffffffffffffffffffffffffffffffffffffff166323b872dd8230856040518463ffffffff1660e01b8152600401610683939291906113d8565b6020604051808303815f875af115801561069f573d5f803e3d5ffd5b505050506040513d601f19601f820116820180604052508101906106c391906112bf565b506106ce8183610dd8565b5050565b5f60015f8473ffffffffffffffffffffffffffffffffffffffff1673ffffffffffffffffffffffffffffffffffffffff1681526020019081526020015f205f8373ffffffffffffffffffffffffffffffffffffffff1673ffffffffffffffffffffffffffffffffffffffff1681526020019081526020015f2054905092915050565b5f33905090565b5f73ffffffffffffffffffffffffffffffffffffffff168373ffffffffffffffffffffffffffffffffffffffff16036107c9576040517f08c379a00000000000000000000000000000000000000000000000000000000081526004016107c09061147d565b60405180910390fd5b5f73ffffffffffffffffffffffffffffffffffffffff168273ffffffffffffffffffffffffffffffffffffffff1603610837576040517f08c379a000000000000000000000000000000000000000000000000000000000815260040161082e9061150b565b60405180910390fd5b8060015f8573ffffffffffffffffffffffffffffffffffffffff1673ffffffffffffffffffffffffffffffffffffffff1681526020019081526020015f205f8473ffffffffffffffffffffffffffffffffffffffff1673ffffffffffffffffffffffffffffffffffffffff1681526020019081526020015f20819055508173ffffffffffffffffffffffffffffffffffffffff168373ffffffffffffffffffffffffffffffffffffffff167f8c5be1e5ebec7d5bd14f71427d1e84f3dd0314c0f7b2291e5b200ac8c7c3b9258360405161091191906110d1565b60405180910390a3505050565b5f61092984846106d2565b90507fffffffffffffffffffffffffffffffffffffffffffffffffffffffffffffffff81146109a35781811015610995576040517f08c379a000000000000000000000000000000000000000000000000000000000815260040161098c90611573565b60405180910390fd5b6109a2848484840361075b565b5b50505050565b5f73ffffffffffffffffffffffffffffffffffffffff168373ffffffffffffffffffffffffffffffffffffffff1603610a17576040517f08c379a0000000000000000000000000000000000000000000000000000000008152600401610a0e90611601565b60405180910390fd5b5f73ffffffffffffffffffffffffffffffffffffffff168273ffffffffffffffffffffffffffffffffffffffff1603610a85576040517f08c379a0000000000000000000000000000000000000000000000000000000008152600401610a7c9061168f565b60405180910390fd5b610a90838383610f26565b5f805f8573ffffffffffffffffffffffffffffffffffffffff1673ffffffffffffffffffffffffffffffffffffffff1681526020019081526020015f2054905081811015610b13576040517f08c379a0000000000000000000000000000000000000000000000000000000008152600401610b0a9061171d565b60405180910390fd5b8181035f808673ffffffffffffffffffffffffffffffffffffffff1673ffffffffffffffffffffffffffffffffffffffff1681526020019081526020015f2081905550815f808573ffffffffffffffffffffffffffffffffffffffff1673ffffffffffffffffffffffffffffffffffffffff1681526020019081526020015f205f82825401925050819055508273ffffffffffffffffffffffffffffffffffffffff168473ffffffffffffffffffffffffffffffffffffffff167fddf252ad1be2c89b69c2b068fc378daa952ba7f163c4a11628f55a4df523b3ef84604051610bfc91906110d1565b60405180910390a3610c0f848484610f2b565b50505050565b5f73ffffffffffffffffffffffffffffffffffffffff168273ffffffffffffffffffffffffffffffffffffffff1603610c83576040517f08c379a0000000000000000000000000000000000000000000000000000000008152600401610c7a906117ab565b60405180910390fd5b610c8e825f83610f26565b5f805f8473ffffffffffffffffffffffffffffffffffffffff1673ffffffffffffffffffffffffffffffffffffffff1681526020019081526020015f2054905081811015610d11576040517f08c379a0000000000000000000000000000000000000000000000000000000008152600401610d0890611839565b60405180910390fd5b8181035f808573ffffffffffffffffffffffffffffffffffffffff1673ffffffffffffffffffffffffffffffffffffffff1681526020019081526020015f20819055508160025f82825403925050819055505f73ffffffffffffffffffffffffffffffffffffffff168373ffffffffffffffffffffffffffffffffffffffff167fddf252ad1be2c89b69c2b068fc378daa952ba7f163c4a11628f55a4df523b3ef84604051610dc091906110d1565b60405180910390a3610dd3835f84610f2b565b505050565b5f73ffffffffffffffffffffffffffffffffffffffff168273ffffffffffffffffffffffffffffffffffffffff1603610e46576040517f08c379a0000000000000000000000000000000000000000000000000000000008152600401610e3d906118a1565b60405180910390fd5b610e515f8383610f26565b8060025f828254610e629190611317565b92505081905550805f808473ffffffffffffffffffffffffffffffffffffffff1673ffffffffffffffffffffffffffffffffffffffff1681526020019081526020015f205f82825401925050819055508173ffffffffffffffffffffffffffffffffffffffff165f73ffffffffffffffffffffffffffffffffffffffff167fddf252ad1be2c89b69c2b068fc378daa952ba7f163c4a11628f55a4df523b3ef83604051610f0f91906110d1565b60405180910390a3610f225f8383610f2b565b5050565b505050565b505050565b5f81519050919050565b5f82825260208201905092915050565b8281835e5f83830152505050565b5f601f19601f8301169050919050565b5f610f7282610f30565b610f7c8185610f3a565b9350610f8c818560208601610f4a565b610f9581610f58565b840191505092915050565b5f6020820190508181035f830152610fb88184610f68565b905092915050565b5f80fd5b5f73ffffffffffffffffffffffffffffffffffffffff82169050919050565b5f610fed82610fc4565b9050919050565b610ffd81610fe3565b8114611007575f80fd5b50565b5f8135905061101881610ff4565b92915050565b5f819050919050565b6110308161101e565b811461103a575f80fd5b50565b5f8135905061104b81611027565b92915050565b5f806040838503121561106757611066610fc0565b5b5f6110748582860161100a565b92505060206110858582860161103d565b9150509250929050565b5f8115159050919050565b6110a38161108f565b82525050565b5f6020820190506110bc5f83018461109a565b92915050565b6110cb8161101e565b82525050565b5f6020820190506110e45f8301846110c2565b92915050565b5f805f6060848603121561110157611100610fc0565b5b5f61110e8682870161100a565b935050602061111f8682870161100a565b92505060406111308682870161103d565b9150509250925092565b5f6020828403121561114f5761114e610fc0565b5b5f61115c8482850161103d565b91505092915050565b5f60ff82169050919050565b61117a81611165565b82525050565b5f6020820190506111935f830184611171565b92915050565b5f602082840312156111ae576111ad610fc0565b5b5f6111bb8482850161100a565b91505092915050565b5f80604083850312156111da576111d9610fc0565b5b5f6111e78582860161100a565b92505060206111f88582860161100a565b9150509250929050565b7f4e487b71000000000000000000000000000000000000000000000000000000005f52602260045260245ffd5b5f600282049050600182168061124657607f821691505b60208210810361125957611258611202565b5b50919050565b61126881610fe3565b82525050565b5f6040820190506112815f83018561125f565b61128e60208301846110c2565b9392505050565b61129e8161108f565b81146112a8575f80fd5b50565b5f815190506112b981611295565b92915050565b5f602082840312156112d4576112d3610fc0565b5b5f6112e1848285016112ab565b91505092915050565b7f4e487b71000000000000000000000000000000000000000000000000000000005f52601160045260245ffd5b5f6113218261101e565b915061132c8361101e565b9250828201905080821115611344576113436112ea565b5b92915050565b7f45524332303a2064656372656173656420616c6c6f77616e63652062656c6f775f8201527f207a65726f000000000000000000000000000000000000000000000000000000602082015250565b5f6113a4602583610f3a565b91506113af8261134a565b604082019050919050565b5f6020820190508181035f8301526113d181611398565b9050919050565b5f6060820190506113eb5f83018661125f565b6113f8602083018561125f565b61140560408301846110c2565b949350505050565b7f45524332303a20617070726f76652066726f6d20746865207a65726f206164645f8201527f7265737300000000000000000000000000000000000000000000000000000000602082015250565b5f611467602483610f3a565b91506114728261140d565b604082019050919050565b5f6020820190508181035f8301526114948161145b565b9050919050565b7f45524332303a20617070726f766520746f20746865207a65726f2061646472655f8201527f7373000000000000000000000000000000000000000000000000000000000000602082015250565b5f6114f5602283610f3a565b91506115008261149b565b604082019050919050565b5f6020820190508181035f830152611522816114e9565b9050919050565b7f45524332303a20696e73756666696369656e7420616c6c6f77616e63650000005f82015250565b5f61155d601d83610f3a565b915061156882611529565b602082019050919050565b5f6020820190508181035f83015261158a81611551565b9050919050565b7f45524332303a207472616e736665722066726f6d20746865207a65726f2061645f8201527f6472657373000000000000000000000000000000000000000000000000000000602082015250565b5f6115eb602583610f3a565b91506115f682611591565b604082019050919050565b5f6020820190508181035f830152611618816115df565b9050919050565b7f45524332303a207472616e7366657220746f20746865207a65726f20616464725f8201527f6573730000000000000000000000000000000000000000000000000000000000602082015250565b5f611679602383610f3a565b91506116848261161f565b604082019050919050565b5f6020820190508181035f8301526116a68161166d565b9050919050565b7f45524332303a207472616e7366657220616d6f756e74206578636565647320625f8201527f616c616e63650000000000000000000000000000000000000000000000000000602082015250565b5f611707602683610f3a565b9150611712826116ad565b604082019050919050565b5f6020820190508181035f830152611734816116fb565b9050919050565b7f45524332303a206275726e2066726f6d20746865207a65726f206164647265735f8201527f7300000000000000000000000000000000000000000000000000000000000000602082015250565b5f611795602183610f3a565b91506117a08261173b565b604082019050919050565b5f6020820190508181035f8301526117c281611789565b9050919050565b7f45524332303a206275726e20616d6f756e7420657863656564732062616c616e5f8201527f6365000000000000000000000000000000000000000000000000000000000000602082015250565b5f611823602283610f3a565b915061182e826117c9565b604082019050919050565b5f6020820190508181035f83015261185081611817565b9050919050565b7f45524332303a206d696e7420746f20746865207a65726f2061646472657373005f82015250565b5f61188b601f83610f3a565b915061189682611857565b602082019050919050565b5f6020820190508181035f8301526118b88161187f565b905091905056fea2646970667358221220852ace54153d9c32a6cd69c76af2ad79672ab272565d99d2268f39482e037fcc64736f6c63430008190033",
  "immutableReferences": {},
  "source": "pragma solidity >=0.8.0 <0.9.0;\n//SPDX-License-Identifier: MIT\n\nimport \"@openzeppelin/contracts/token/ERC20/ERC20.sol\";\n\ncontract ERC20Wrapper is ERC20 {\n    address _underlying;\n\n    constructor(address underlyingToken) ERC20(\"Wrapped LETH\", \"WLETH\") {\n        require(underlyingToken != address(this), \"ERC20Wrapper: cannot self wrap\");\n        _underlying = underlyingToken;\n    }\n\n    function deposit(uint256 amount) public virtual  {\n        address sender = _msgSender();\n        ERC20(_underlying).transferFrom(sender, address(this), amount); // 1: _underlying, 2: sender, 3: address(this), 4: amount\n        _mint(sender, amount); // 5: sender, 6: amount\n    }\n\n    function withdraw(uint256 amount) public virtual  {\n        address sender = _msgSender();\n        _burn(sender, amount); // 7: sender, 8: amount\n        ERC20(_underlying).transfer(sender, amount); // 1: _underlying, 9: sender, 10: amount\n    }\n}",
  "sourcePath": "/Users/owenyang/Documents/COS473/FinalProject/contracts/TokenWrap/ERC20Wrapper.sol",
  "compiler": {
    "name": "solc",
    "version": "0.8.25+commit.b61c2a91.Emscripten.clang"
  },
  "schemaVersion": "3.4.16",
  "updatedAt": "2024-04-11T02:25:49.973Z",
  "devdoc": {
    "events": {
      "Approval(address,address,uint256)": {
        "details": "Emitted when the allowance of a `spender` for an `owner` is set by a call to {approve}. `value` is the new allowance."
      },
      "Transfer(address,address,uint256)": {
        "details": "Emitted when `value` tokens are moved from one account (`from`) to another (`to`). Note that `value` may be zero."
      }
    },
    "kind": "dev",
    "methods": {
      "allowance(address,address)": {
        "details": "See {IERC20-allowance}."
      },
      "approve(address,uint256)": {
        "details": "See {IERC20-approve}. NOTE: If `amount` is the maximum `uint256`, the allowance is not updated on `transferFrom`. This is semantically equivalent to an infinite approval. Requirements: - `spender` cannot be the zero address."
      },
      "balanceOf(address)": {
        "details": "See {IERC20-balanceOf}."
      },
      "decimals()": {
        "details": "Returns the number of decimals used to get its user representation. For example, if `decimals` equals `2`, a balance of `505` tokens should be displayed to a user as `5.05` (`505 / 10 ** 2`). Tokens usually opt for a value of 18, imitating the relationship between Ether and Wei. This is the default value returned by this function, unless it's overridden. NOTE: This information is only used for _display_ purposes: it in no way affects any of the arithmetic of the contract, including {IERC20-balanceOf} and {IERC20-transfer}."
      },
      "decreaseAllowance(address,uint256)": {
        "details": "Atomically decreases the allowance granted to `spender` by the caller. This is an alternative to {approve} that can be used as a mitigation for problems described in {IERC20-approve}. Emits an {Approval} event indicating the updated allowance. Requirements: - `spender` cannot be the zero address. - `spender` must have allowance for the caller of at least `subtractedValue`."
      },
      "increaseAllowance(address,uint256)": {
        "details": "Atomically increases the allowance granted to `spender` by the caller. This is an alternative to {approve} that can be used as a mitigation for problems described in {IERC20-approve}. Emits an {Approval} event indicating the updated allowance. Requirements: - `spender` cannot be the zero address."
      },
      "name()": {
        "details": "Returns the name of the token."
      },
      "symbol()": {
        "details": "Returns the symbol of the token, usually a shorter version of the name."
      },
      "totalSupply()": {
        "details": "See {IERC20-totalSupply}."
      },
      "transfer(address,uint256)": {
        "details": "See {IERC20-transfer}. Requirements: - `to` cannot be the zero address. - the caller must have a balance of at least `amount`."
      },
      "transferFrom(address,address,uint256)": {
        "details": "See {IERC20-transferFrom}. Emits an {Approval} event indicating the updated allowance. This is not required by the EIP. See the note at the beginning of {ERC20}. NOTE: Does not update the allowance if the current allowance is the maximum `uint256`. Requirements: - `from` and `to` cannot be the zero address. - `from` must have a balance of at least `amount`. - the caller must have allowance for ``from``'s tokens of at least `amount`."
      }
    },
    "version": 1
  },
  "userdoc": {
    "kind": "user",
    "methods": {},
    "version": 1
  }
}