{
  "contractName": "LETH",
  "abi": [
    {
      "inputs": [],
      "stateMutability": "nonpayable",
      "type": "constructor"
    },
    {
      "anonymous": false,
      "inputs": [
        {
          "indexed": true,
          "internalType": "address",
          "name": "owner",
          "type": "address"
        },
        {
          "indexed": true,
          "internalType": "address",
          "name": "spender",
          "type": "address"
        },
        {
          "indexed": false,
          "internalType": "uint256",
          "name": "value",
          "type": "uint256"
        }
      ],
      "name": "Approval",
      "type": "event"
    },
    {
      "anonymous": false,
      "inputs": [
        {
          "indexed": true,
          "internalType": "address",
          "name": "from",
          "type": "address"
        },
        {
          "indexed": true,
          "internalType": "address",
          "name": "to",
          "type": "address"
        },
        {
          "indexed": false,
          "internalType": "uint256",
          "name": "value",
          "type": "uint256"
        }
      ],
      "name": "Transfer",
      "type": "event"
    },
    {
      "inputs": [
        {
          "internalType": "address",
          "name": "owner",
          "type": "address"
        },
        {
          "internalType": "address",
          "name": "spender",
          "type": "address"
        }
      ],
      "name": "allowance",
      "outputs": [
        {
          "internalType": "uint256",
          "name": "",
          "type": "uint256"
        }
      ],
      "stateMutability": "view",
      "type": "function"
    },
    {
      "inputs": [
        {
          "internalType": "address",
          "name": "spender",
          "type": "address"
        },
        {
          "internalType": "uint256",
          "name": "amount",
          "type": "uint256"
        }
      ],
      "name": "approve",
      "outputs": [
        {
          "internalType": "bool",
          "name": "",
          "type": "bool"
        }
      ],
      "stateMutability": "nonpayable",
      "type": "function"
    },
    {
      "inputs": [
        {
          "internalType": "address",
          "name": "account",
          "type": "address"
        }
      ],
      "name": "balanceOf",
      "outputs": [
        {
          "internalType": "uint256",
          "name": "",
          "type": "uint256"
        }
      ],
      "stateMutability": "view",
      "type": "function"
    },
    {
      "inputs": [
        {
          "internalType": "address",
          "name": "spender",
          "type": "address"
        },
        {
          "internalType": "uint256",
          "name": "subtractedValue",
          "type": "uint256"
        }
      ],
      "name": "decreaseAllowance",
      "outputs": [
        {
          "internalType": "bool",
          "name": "",
          "type": "bool"
        }
      ],
      "stateMutability": "nonpayable",
      "type": "function"
    },
    {
      "inputs": [
        {
          "internalType": "address",
          "name": "spender",
          "type": "address"
        },
        {
          "internalType": "uint256",
          "name": "addedValue",
          "type": "uint256"
        }
      ],
      "name": "increaseAllowance",
      "outputs": [
        {
          "internalType": "bool",
          "name": "",
          "type": "bool"
        }
      ],
      "stateMutability": "nonpayable",
      "type": "function"
    },
    {
      "inputs": [],
      "name": "name",
      "outputs": [
        {
          "internalType": "string",
          "name": "",
          "type": "string"
        }
      ],
      "stateMutability": "view",
      "type": "function"
    },
    {
      "inputs": [],
      "name": "symbol",
      "outputs": [
        {
          "internalType": "string",
          "name": "",
          "type": "string"
        }
      ],
      "stateMutability": "view",
      "type": "function"
    },
    {
      "inputs": [],
      "name": "totalSupply",
      "outputs": [
        {
          "internalType": "uint256",
          "name": "",
          "type": "uint256"
        }
      ],
      "stateMutability": "view",
      "type": "function"
    },
    {
      "inputs": [
        {
          "internalType": "address",
          "name": "to",
          "type": "address"
        },
        {
          "internalType": "uint256",
          "name": "amount",
          "type": "uint256"
        }
      ],
      "name": "transfer",
      "outputs": [
        {
          "internalType": "bool",
          "name": "",
          "type": "bool"
        }
      ],
      "stateMutability": "nonpayable",
      "type": "function"
    },
    {
      "inputs": [
        {
          "internalType": "address",
          "name": "from",
          "type": "address"
        },
        {
          "internalType": "address",
          "name": "to",
          "type": "address"
        },
        {
          "internalType": "uint256",
          "name": "amount",
          "type": "uint256"
        }
      ],
      "name": "transferFrom",
      "outputs": [
        {
          "internalType": "bool",
          "name": "",
          "type": "bool"
        }
      ],
      "stateMutability": "nonpayable",
      "type": "function"
    },
    {
      "inputs": [],
      "name": "decimals",
      "outputs": [
        {
          "internalType": "uint8",
          "name": "",
          "type": "uint8"
        }
      ],
      "stateMutability": "view",
      "type": "function"
    },
    {
      "inputs": [
        {
          "internalType": "uint256",
          "name": "amount",
          "type": "uint256"
        },
        {
          "internalType": "address",
          "name": "wallet",
          "type": "address"
        }
      ],
      "name": "mint",
      "outputs": [],
      "stateMutability": "nonpayable",
      "type": "function"
    }
  ],
  "bytecode": "0x60806040523480156200001157600080fd5b506040518060400160405280600a81526020017f4c45544820546f6b656e000000000000000000000000000000000000000000008152506040518060400160405280600481526020017f4c455448000000000000000000000000000000000000000000000000000000008152508160039080519060200190620000969291906200027c565b508060049080519060200190620000af9291906200027c565b505050620000f533620000c7620000fb60201b60201c565b60ff16600a620000d891906200046c565b6305f5e100620000e99190620005a9565b6200010460201b60201c565b620006de565b60006008905090565b600073ffffffffffffffffffffffffffffffffffffffff168273ffffffffffffffffffffffffffffffffffffffff16141562000177576040517f08c379a00000000000000000000000000000000000000000000000000000000081526004016200016e9062000364565b60405180910390fd5b6200018b600083836200027260201b60201c565b80600260008282546200019f9190620003b4565b92505081905550806000808473ffffffffffffffffffffffffffffffffffffffff1673ffffffffffffffffffffffffffffffffffffffff168152602001908152602001600020600082825401925050819055508173ffffffffffffffffffffffffffffffffffffffff16600073ffffffffffffffffffffffffffffffffffffffff167fddf252ad1be2c89b69c2b068fc378daa952ba7f163c4a11628f55a4df523b3ef8360405162000252919062000386565b60405180910390a36200026e600083836200027760201b60201c565b5050565b505050565b505050565b8280546200028a9062000614565b90600052602060002090601f016020900481019282620002ae5760008555620002fa565b82601f10620002c957805160ff1916838001178555620002fa565b82800160010185558215620002fa579182015b82811115620002f9578251825591602001919060010190620002dc565b5b5090506200030991906200030d565b5090565b5b80821115620003285760008160009055506001016200030e565b5090565b60006200033b601f83620003a3565b91506200034882620006b5565b602082019050919050565b6200035e816200060a565b82525050565b600060208201905081810360008301526200037f816200032c565b9050919050565b60006020820190506200039d600083018462000353565b92915050565b600082825260208201905092915050565b6000620003c1826200060a565b9150620003ce836200060a565b9250827fffffffffffffffffffffffffffffffffffffffffffffffffffffffffffffffff038211156200040657620004056200064a565b5b828201905092915050565b6000808291508390505b600185111562000463578086048111156200043b576200043a6200064a565b5b60018516156200044b5780820291505b80810290506200045b85620006a8565b94506200041b565b94509492505050565b600062000479826200060a565b915062000486836200060a565b9250620004b57fffffffffffffffffffffffffffffffffffffffffffffffffffffffffffffffff8484620004bd565b905092915050565b600082620004cf5760019050620005a2565b81620004df5760009050620005a2565b8160018114620004f85760028114620005035762000539565b6001915050620005a2565b60ff8411156200051857620005176200064a565b5b8360020a9150848211156200053257620005316200064a565b5b50620005a2565b5060208310610133831016604e8410600b8410161715620005735782820a9050838111156200056d576200056c6200064a565b5b620005a2565b62000582848484600162000411565b925090508184048111156200059c576200059b6200064a565b5b81810290505b9392505050565b6000620005b6826200060a565b9150620005c3836200060a565b9250817fffffffffffffffffffffffffffffffffffffffffffffffffffffffffffffffff0483118215151615620005ff57620005fe6200064a565b5b828202905092915050565b6000819050919050565b600060028204905060018216806200062d57607f821691505b6020821081141562000644576200064362000679565b5b50919050565b7f4e487b7100000000000000000000000000000000000000000000000000000000600052601160045260246000fd5b7f4e487b7100000000000000000000000000000000000000000000000000000000600052602260045260246000fd5b60008160011c9050919050565b7f45524332303a206d696e7420746f20746865207a65726f206164647265737300600082015250565b61149780620006ee6000396000f3fe608060405234801561001057600080fd5b50600436106100b45760003560e01c806370a082311161007157806370a08231146101a357806394bf804d146101d357806395d89b41146101ef578063a457c2d71461020d578063a9059cbb1461023d578063dd62ed3e1461026d576100b4565b806306fdde03146100b9578063095ea7b3146100d757806318160ddd1461010757806323b872dd14610125578063313ce567146101555780633950935114610173575b600080fd5b6100c161029d565b6040516100ce9190610f0f565b60405180910390f35b6100f160048036038101906100ec9190610cf6565b61032f565b6040516100fe9190610ef4565b60405180910390f35b61010f610352565b60405161011c9190611031565b60405180910390f35b61013f600480360381019061013a9190610ca3565b61035c565b60405161014c9190610ef4565b60405180910390f35b61015d61038b565b60405161016a919061104c565b60405180910390f35b61018d60048036038101906101889190610cf6565b610394565b60405161019a9190610ef4565b60405180910390f35b6101bd60048036038101906101b89190610c36565b6103cb565b6040516101ca9190611031565b60405180910390f35b6101ed60048036038101906101e89190610d36565b610413565b005b6101f7610421565b6040516102049190610f0f565b60405180910390f35b61022760048036038101906102229190610cf6565b6104b3565b6040516102349190610ef4565b60405180910390f35b61025760048036038101906102529190610cf6565b61052a565b6040516102649190610ef4565b60405180910390f35b61028760048036038101906102829190610c63565b61054d565b6040516102949190611031565b60405180910390f35b6060600380546102ac90611161565b80601f01602080910402602001604051908101604052809291908181526020018280546102d890611161565b80156103255780601f106102fa57610100808354040283529160200191610325565b820191906000526020600020905b81548152906001019060200180831161030857829003601f168201915b5050505050905090565b60008061033a6105d4565b90506103478185856105dc565b600191505092915050565b6000600254905090565b6000806103676105d4565b90506103748582856107a7565b61037f858585610833565b60019150509392505050565b60006008905090565b60008061039f6105d4565b90506103c08185856103b1858961054d565b6103bb9190611083565b6105dc565b600191505092915050565b60008060008373ffffffffffffffffffffffffffffffffffffffff1673ffffffffffffffffffffffffffffffffffffffff168152602001908152602001600020549050919050565b61041d8183610aab565b5050565b60606004805461043090611161565b80601f016020809104026020016040519081016040528092919081815260200182805461045c90611161565b80156104a95780601f1061047e576101008083540402835291602001916104a9565b820191906000526020600020905b81548152906001019060200180831161048c57829003601f168201915b5050505050905090565b6000806104be6105d4565b905060006104cc828661054d565b905083811015610511576040517f08c379a000000000000000000000000000000000000000000000000000000000815260040161050890610ff1565b60405180910390fd5b61051e82868684036105dc565b60019250505092915050565b6000806105356105d4565b9050610542818585610833565b600191505092915050565b6000600160008473ffffffffffffffffffffffffffffffffffffffff1673ffffffffffffffffffffffffffffffffffffffff16815260200190815260200160002060008373ffffffffffffffffffffffffffffffffffffffff1673ffffffffffffffffffffffffffffffffffffffff16815260200190815260200160002054905092915050565b600033905090565b600073ffffffffffffffffffffffffffffffffffffffff168373ffffffffffffffffffffffffffffffffffffffff16141561064c576040517f08c379a000000000000000000000000000000000000000000000000000000000815260040161064390610fd1565b60405180910390fd5b600073ffffffffffffffffffffffffffffffffffffffff168273ffffffffffffffffffffffffffffffffffffffff1614156106bc576040517f08c379a00000000000000000000000000000000000000000000000000000000081526004016106b390610f51565b60405180910390fd5b80600160008573ffffffffffffffffffffffffffffffffffffffff1673ffffffffffffffffffffffffffffffffffffffff16815260200190815260200160002060008473ffffffffffffffffffffffffffffffffffffffff1673ffffffffffffffffffffffffffffffffffffffff168152602001908152602001600020819055508173ffffffffffffffffffffffffffffffffffffffff168373ffffffffffffffffffffffffffffffffffffffff167f8c5be1e5ebec7d5bd14f71427d1e84f3dd0314c0f7b2291e5b200ac8c7c3b9258360405161079a9190611031565b60405180910390a3505050565b60006107b3848461054d565b90507fffffffffffffffffffffffffffffffffffffffffffffffffffffffffffffffff811461082d578181101561081f576040517f08c379a000000000000000000000000000000000000000000000000000000000815260040161081690610f71565b60405180910390fd5b61082c84848484036105dc565b5b50505050565b600073ffffffffffffffffffffffffffffffffffffffff168373ffffffffffffffffffffffffffffffffffffffff1614156108a3576040517f08c379a000000000000000000000000000000000000000000000000000000000815260040161089a90610fb1565b60405180910390fd5b600073ffffffffffffffffffffffffffffffffffffffff168273ffffffffffffffffffffffffffffffffffffffff161415610913576040517f08c379a000000000000000000000000000000000000000000000000000000000815260040161090a90610f31565b60405180910390fd5b61091e838383610c02565b60008060008573ffffffffffffffffffffffffffffffffffffffff1673ffffffffffffffffffffffffffffffffffffffff168152602001908152602001600020549050818110156109a4576040517f08c379a000000000000000000000000000000000000000000000000000000000815260040161099b90610f91565b60405180910390fd5b8181036000808673ffffffffffffffffffffffffffffffffffffffff1673ffffffffffffffffffffffffffffffffffffffff16815260200190815260200160002081905550816000808573ffffffffffffffffffffffffffffffffffffffff1673ffffffffffffffffffffffffffffffffffffffff168152602001908152602001600020600082825401925050819055508273ffffffffffffffffffffffffffffffffffffffff168473ffffffffffffffffffffffffffffffffffffffff167fddf252ad1be2c89b69c2b068fc378daa952ba7f163c4a11628f55a4df523b3ef84604051610a929190611031565b60405180910390a3610aa5848484610c07565b50505050565b600073ffffffffffffffffffffffffffffffffffffffff168273ffffffffffffffffffffffffffffffffffffffff161415610b1b576040517f08c379a0000000000000000000000000000000000000000000000000000000008152600401610b1290611011565b60405180910390fd5b610b2760008383610c02565b8060026000828254610b399190611083565b92505081905550806000808473ffffffffffffffffffffffffffffffffffffffff1673ffffffffffffffffffffffffffffffffffffffff168152602001908152602001600020600082825401925050819055508173ffffffffffffffffffffffffffffffffffffffff16600073ffffffffffffffffffffffffffffffffffffffff167fddf252ad1be2c89b69c2b068fc378daa952ba7f163c4a11628f55a4df523b3ef83604051610bea9190611031565b60405180910390a3610bfe60008383610c07565b5050565b505050565b505050565b600081359050610c1b81611433565b92915050565b600081359050610c308161144a565b92915050565b600060208284031215610c4c57610c4b6111f1565b5b6000610c5a84828501610c0c565b91505092915050565b60008060408385031215610c7a57610c796111f1565b5b6000610c8885828601610c0c565b9250506020610c9985828601610c0c565b9150509250929050565b600080600060608486031215610cbc57610cbb6111f1565b5b6000610cca86828701610c0c565b9350506020610cdb86828701610c0c565b9250506040610cec86828701610c21565b9150509250925092565b60008060408385031215610d0d57610d0c6111f1565b5b6000610d1b85828601610c0c565b9250506020610d2c85828601610c21565b9150509250929050565b60008060408385031215610d4d57610d4c6111f1565b5b6000610d5b85828601610c21565b9250506020610d6c85828601610c0c565b9150509250929050565b610d7f816110eb565b82525050565b6000610d9082611067565b610d9a8185611072565b9350610daa81856020860161112e565b610db3816111f6565b840191505092915050565b6000610dcb602383611072565b9150610dd682611207565b604082019050919050565b6000610dee602283611072565b9150610df982611256565b604082019050919050565b6000610e11601d83611072565b9150610e1c826112a5565b602082019050919050565b6000610e34602683611072565b9150610e3f826112ce565b604082019050919050565b6000610e57602583611072565b9150610e628261131d565b604082019050919050565b6000610e7a602483611072565b9150610e858261136c565b604082019050919050565b6000610e9d602583611072565b9150610ea8826113bb565b604082019050919050565b6000610ec0601f83611072565b9150610ecb8261140a565b602082019050919050565b610edf81611117565b82525050565b610eee81611121565b82525050565b6000602082019050610f096000830184610d76565b92915050565b60006020820190508181036000830152610f298184610d85565b905092915050565b60006020820190508181036000830152610f4a81610dbe565b9050919050565b60006020820190508181036000830152610f6a81610de1565b9050919050565b60006020820190508181036000830152610f8a81610e04565b9050919050565b60006020820190508181036000830152610faa81610e27565b9050919050565b60006020820190508181036000830152610fca81610e4a565b9050919050565b60006020820190508181036000830152610fea81610e6d565b9050919050565b6000602082019050818103600083015261100a81610e90565b9050919050565b6000602082019050818103600083015261102a81610eb3565b9050919050565b60006020820190506110466000830184610ed6565b92915050565b60006020820190506110616000830184610ee5565b92915050565b600081519050919050565b600082825260208201905092915050565b600061108e82611117565b915061109983611117565b9250827fffffffffffffffffffffffffffffffffffffffffffffffffffffffffffffffff038211156110ce576110cd611193565b5b828201905092915050565b60006110e4826110f7565b9050919050565b60008115159050919050565b600073ffffffffffffffffffffffffffffffffffffffff82169050919050565b6000819050919050565b600060ff82169050919050565b60005b8381101561114c578082015181840152602081019050611131565b8381111561115b576000848401525b50505050565b6000600282049050600182168061117957607f821691505b6020821081141561118d5761118c6111c2565b5b50919050565b7f4e487b7100000000000000000000000000000000000000000000000000000000600052601160045260246000fd5b7f4e487b7100000000000000000000000000000000000000000000000000000000600052602260045260246000fd5b600080fd5b6000601f19601f8301169050919050565b7f45524332303a207472616e7366657220746f20746865207a65726f206164647260008201527f6573730000000000000000000000000000000000000000000000000000000000602082015250565b7f45524332303a20617070726f766520746f20746865207a65726f20616464726560008201527f7373000000000000000000000000000000000000000000000000000000000000602082015250565b7f45524332303a20696e73756666696369656e7420616c6c6f77616e6365000000600082015250565b7f45524332303a207472616e7366657220616d6f756e742065786365656473206260008201527f616c616e63650000000000000000000000000000000000000000000000000000602082015250565b7f45524332303a207472616e736665722066726f6d20746865207a65726f20616460008201527f6472657373000000000000000000000000000000000000000000000000000000602082015250565b7f45524332303a20617070726f76652066726f6d20746865207a65726f2061646460008201527f7265737300000000000000000000000000000000000000000000000000000000602082015250565b7f45524332303a2064656372656173656420616c6c6f77616e63652062656c6f7760008201527f207a65726f000000000000000000000000000000000000000000000000000000602082015250565b7f45524332303a206d696e7420746f20746865207a65726f206164647265737300600082015250565b61143c816110d9565b811461144757600080fd5b50565b61145381611117565b811461145e57600080fd5b5056fea26469706673582212209bdd7fb420e6b851e58e5c90326984ed49c63ad948fe7f218c93ebd8d0a9639064736f6c63430008070033",
  "immutableReferences": {},
  "source": "// SPDX-License-Identifier: MIT\npragma solidity >=0.8.0 <0.9.0;\n\nimport \"@openzeppelin/contracts/token/ERC20/ERC20.sol\";\n\ncontract LETH is ERC20 {\n    constructor() ERC20(\"LETH Token\", \"LETH\") {\n        _mint(msg.sender, 100000000 * (10 ** uint256(decimals())));\n    }\n\n    function decimals() public view virtual override returns (uint8) {\n        return 8;\n    }\n\n    function mint(uint256 amount, address wallet) public {\n        _mint(wallet, amount);\n    }\n}\n",
  "sourcePath": "/Users/owenyang/Documents/COS473/FinalProject/contracts/TokenWrap/LETH.sol",
  "compiler": {
    "name": "solc",
    "version": "0.8.7+commit.e28d00a7.Emscripten.clang"
  },
  "schemaVersion": "3.4.16",
  "updatedAt": "2024-04-11T04:52:56.147Z",
  "devdoc": {
    "kind": "dev",
    "methods": {
      "allowance(address,address)": {
        "details": "See {IERC20-allowance}."
      },
      "approve(address,uint256)": {
        "details": "See {IERC20-approve}. NOTE: If `amount` is the maximum `uint256`, the allowance is not updated on `transferFrom`. This is semantically equivalent to an infinite approval. Requirements: - `spender` cannot be the zero address."
      },
      "balanceOf(address)": {
        "details": "See {IERC20-balanceOf}."
      },
      "decimals()": {
        "details": "Returns the number of decimals used to get its user representation. For example, if `decimals` equals `2`, a balance of `505` tokens should be displayed to a user as `5.05` (`505 / 10 ** 2`). Tokens usually opt for a value of 18, imitating the relationship between Ether and Wei. This is the default value returned by this function, unless it's overridden. NOTE: This information is only used for _display_ purposes: it in no way affects any of the arithmetic of the contract, including {IERC20-balanceOf} and {IERC20-transfer}."
      },
      "decreaseAllowance(address,uint256)": {
        "details": "Atomically decreases the allowance granted to `spender` by the caller. This is an alternative to {approve} that can be used as a mitigation for problems described in {IERC20-approve}. Emits an {Approval} event indicating the updated allowance. Requirements: - `spender` cannot be the zero address. - `spender` must have allowance for the caller of at least `subtractedValue`."
      },
      "increaseAllowance(address,uint256)": {
        "details": "Atomically increases the allowance granted to `spender` by the caller. This is an alternative to {approve} that can be used as a mitigation for problems described in {IERC20-approve}. Emits an {Approval} event indicating the updated allowance. Requirements: - `spender` cannot be the zero address."
      },
      "name()": {
        "details": "Returns the name of the token."
      },
      "symbol()": {
        "details": "Returns the symbol of the token, usually a shorter version of the name."
      },
      "totalSupply()": {
        "details": "See {IERC20-totalSupply}."
      },
      "transfer(address,uint256)": {
        "details": "See {IERC20-transfer}. Requirements: - `to` cannot be the zero address. - the caller must have a balance of at least `amount`."
      },
      "transferFrom(address,address,uint256)": {
        "details": "See {IERC20-transferFrom}. Emits an {Approval} event indicating the updated allowance. This is not required by the EIP. See the note at the beginning of {ERC20}. NOTE: Does not update the allowance if the current allowance is the maximum `uint256`. Requirements: - `from` and `to` cannot be the zero address. - `from` must have a balance of at least `amount`. - the caller must have allowance for ``from``'s tokens of at least `amount`."
      }
    },
    "version": 1
  },
  "userdoc": {
    "kind": "user",
    "methods": {},
    "version": 1
  }
}